:020000040800F2
:1000000000500020D53000086F2C0008712C00082B
:10001000732C0008752C0008772C000800000000E5
:10002000000000000000000000000000792C000823
:100030007B2C0008000000007D2C00087F2C0008AD
:100040001D3100081D3100081D3100081D31000858
:100050001D3100081D3100081D3100081D31000848
:100060001D310008832C00081D3100081D310008D7
:100070001D3100081D3100081D3100081D31000828
:100080001D3100081D3100081D3100081D31000818
:10009000892C00081D3100081D310008952C00082E
:1000A0001D3100081D3100081D3100081D310008F8
:1000B0009D2C00081D3100081D3100081D3100086D
:1000C0001D3100081D3100081D3100081D310008D8
:1000D0001D3100081D3100081D3100081D310008C8
:1000E0001D3100081D3100081D310008000000000E
:1000F0000000000000000000000000000000000000
:0C01000000000000000000005FF808F1A3
:10010C0010B5054C237833B9044B13B10448AFF345
:10011C0000800123237010BD7C0100200000000032
:10012C007831000808B5034B1BB103490348AFF302
:10013C00008008BD0000000080010020783100081C
:10014C0038B50E4B054618784FF47A73B3FBF0F3C1
:10015C000B4A1068B0FBF3F000F0A0F8044658B955
:10016C000F2D09D8024629464FF0FF3000F054F805
:10017C00044B20461D6038BD012038BD0000002016
:10018C001801002004000020074A08B5136803205A
:10019C0043F01003136000F02DF80020FFF7D0FFA0
:1001AC0002F022FD002008BD00200240034A044B4F
:1001BC0011681B780B441360704700BFC803002004
:1001CC0000000020014B1868704700BFC8030020D6
:1001DC0038B50446FFF7F6FF0546631C1EBF044BFB
:1001EC001B78E418FFF7EEFF401B8442FAD838BDA9
:1001FC0000000020074A0002D36800F4E06023F4FA
:10020C00E0631B041B0C43F0BF6343F40033034354
:10021C00D360704700ED00E0174B30B5DC68C4F3D9
:10022C000224C4F10703251D042B28BF0423062D2B
:10023C004FF0010598BF002405FA03F303F1FF33D7
:10024C0088BF033C1940A14005FA04F4013C22404C
:10025C00002842EA01024FEA0212A9BF00F16040F5
:10026C00064BD2B200F56140BBBF00F00F00D2B21A
:10027C0080F800231A5430BD00ED00E014ED00E0CE
:10028C00002808DB0123420900F01F0003FA00F0EC
:10029C00014B43F82200704700E100E00138B0F157
:1002AC00807F0AD2F021064B064A586082F8231050
:1002BC000020072298601A6070470120704700BF29
:1002CC0010E000E000ED00E02DE9F74F0024264699
:1002DC00664BDFF8A8E1DFF8A8C10A6832FA06F528
:1002EC0002D103B0BDE8F08F4FF0010808FA06F810
:1002FC0002EA080290457FD14D68122D00F0AA80C9
:10030C0000F28380022D00F0A28077D8002D00F03F
:10031C008980012D00F099804FF00F09FF2A93BFBF
:10032C00824606F18045083DD0F800B092BFB5007A
:10033C00D0F804B0AD0009FA05F82BEA080804FA65
:10034C0005F588BF00F1040A48EA0505CAF8005013
:10035C00D1F804A01AF0805F4ED0454D444FAD69E2
:10036C0026F0030845F00105BD61BD6908F1804820
:10037C0005F00105019508F5803806F0030B019D89
:10038C004FEA8B0BD8F8085009FA0BF925EA090942
:10039C00384DA84263D005F58065A84261D005F5BB
:1003AC008065A8425FD005F58065A8420CBF032587
:1003BC00042505FA0BF545EA0905C8F808501D682F
:1003CC001AF4803F14BF154395431D605D681AF401
:1003DC00003F14BF154395435D609D681AF4801F60
:1003EC0014BF154395439D60DD681AF4001F14BFBC
:1003FC002A4325EA0202DA6001366EE7032D22D089
:10040C00112D89D1CC68043486E71B4FBD4209D02D
:10041C0012D8DFF870904D4504D009F580394D4560
:10042C007FF47AAF8C68C4B1012C0CBFC0F810807B
:10043C00C0F8148008246FE77545F3D06545F1D0FA
:10044C00DFF84490EBE7002466E7CC6864E7CC68FF
:10045C00083461E7CC680C345EE704245CE70025C3
:10046C00A7E70125A5E70225A3E700BF000401408B
:10047C000010024000080140000021100000311063
:10048C000000321000001110000022100AB10161AE
:10049C0070470904FBE7000008B5044B5969014299
:1004AC0002D0586102F058FA08BD00BF00040140A8
:1004BC00F0B5044687B010B390F8293203F0FF0270
:1004CC001BB980F8282202F05DFC254603236E46FA
:1004DC0055F8100B84F8293201F086F80FCD0FC6B1
:1004EC002B6825463360271D97E80E0055F8100B36
:1004FC0001F06AF8064620B1022384F8293201255E
:10050C0048E00146206801F079F830464FF0010EC2
:10051C006168C3B2994200F1010017D8002210465D
:10052C00D3B2994202F101021DD86E460FCD0FC60F
:10053C002B68336097E80E00206801F061F8012306
:10054C00054600B3022284F82922D8E704EB4312B3
:10055C0082F829E082F82830D38682F82B609663E3
:10056C00D6631664D5E704EB431686F828310A33B4
:10057C005B0186F8290186F82B01C6F83801C6F80C
:10058C003C01E050CCE784F8240084F82932206840
:10059C0001F01CFB284607B0F0BD90F8283210B5CE
:1005AC00012B04460ED0012180F8281202F013FD15
:1005BC00206801F009FB206801F00DF8002084F898
:1005CC00280210BD022010BD90F8282210B5012A77
:1005DC0004460BD0012280F8282284F824100068ED
:1005EC0001F0ECFA002084F8280210BD022010BDA6
:1005FC0070B511F0800F044601F007004FEA40156A
:10060C001FD0012605F128012544214485F82960D5
:10061C000A614A78C0B20870CB7002B1C881022B53
:10062C0004BF00230B7194F82832012B11D0012345
:10063C00206884F8283200F0FFFF002084F828029C
:10064C0070BD002605F594712544214485F8296177
:10065C00DEE7022070BD01F0070311F0800F10B52A
:10066C004FEA4312044615D002F12801014402441A
:10067C00012082F829000B7094F82832012B11D03C
:10068C000123206884F8283201F04EF9002084F808
:10069C00280210BD02F5947101440244002082F836
:1006AC002901E8E7022010BD70B5002601F0070112
:1006BC004D01441984F8281105F594710144C4F8CE
:1006CC003C21C4F84031C4F8446184F829610068C5
:1006DC0001F094FA304670BD01F0070100EB4111B6
:1006EC00D1F84401704701F0070170B54D01441970
:1006FC0023640026012384F8281005F12801014405
:10070C00E263666484F82930006801F077FA3046B9
:10071C0070BD00002DE9F84F0446006801F058FA4E
:10072C00020400F11082206801F052FA43050FD543
:10073C0022682046B2F8443023F480631B041B0C5F
:10074C00A2F8443002F055FB00212046FFF73CFF95
:10075C00206801F03DFA470408D52268B2F844300D
:10076C0023F480431B041B0CA2F84430206801F0D6
:10077C002FFA860408D52268B2F8443023F40053CB
:10078C001B041B0CA2F84430206801F021FAC504AC
:10079C001CD522682046B2F8403023F004031B0419
:1007AC001B0CA2F84030B2F8403023F008031B04B5
:1007BC001B0CA2F8403002F03FFB2268B2F8443028
:1007CC0023F480531B041B0CA2F84430206801F066
:1007DC00FFF9000526D52068B0F840309BB243F0F5
:1007EC000803A0F84030B0F8443023F400631B0435
:1007FC001B0CA0F84430B0F840309BB243F004031B
:10080C00A0F8403001F0E4F9C10408D52268B2F830
:10081C00443023F480531B041B0CA2F844302046B4
:10082C0002F0FAFA206801F0D3F982050BD52268A0
:10083C002046B2F8443023F400731B041B0CA2F8BE
:10084C00443002F0D2FA206801F0C2F9C30508D591
:10085C002268B2F8443023F480731B041B0CA2F8FA
:10086C004430BDE8F88FB0F8441089B211F00F068F
:10087C0040F0B780038811F010019BB22CD103EA31
:10088C00090343F400430380B0F8503094F8282057
:10089C009BB203EBC20300EB4300B0F80434E26BF1
:1008AC00C3F3090363641344E363204602F096FA2E
:1008BC0094F8243053B1226C42B994F82430216856
:1008CC0043F08003A1F84C3084F824202068B0F861
:1008DC0044301B04C7D426E713F4006521D0B0F8CC
:1008EC00503094F828219BB203EBC20300EB430376
:1008FC00B3F80C34B4F82E21C3F30903C4F8443113
:10090C0004F50C7101F062FA22682046138823F07A
:10091C0070031B051B0D43F08003138002F050FA8B
:10092C00D4E71F04D2D5038823F070031B051B0DDD
:10093C0043F080030380B0F8503094F828219BB228
:10094C0003EBC20300EB4303B3F80C34C3F309030A
:10095C00C4F844318BB1D4F83C1171B1B4F82E21E8
:10096C0001F034FAD4F83C31D4F84421294613442C
:10097C00C4F83C31204602F029FA2168D4F83851E9
:10098C00B1F8503001F20C409BB2CDB9C25A22F4EE
:10099C00F8421204120CC252C25A92B242F40042F1
:1009AC00C2520B8823F4804323F070031B041B0CEE
:1009BC0083F4405343F4004343F080030B8085E7FA
:1009CC003E2D06D86A08EE0748BF0132920292B259
:1009DC00E6E76A09ED0608BF02F1FF324AEA822215
:1009EC00F5E730F826801FFA88F818F4004F3DD050
:1009FC0030F82630770123F070031B051B0D43F0F4
:100A0C00800320F82630E11991F83431002B58D1AD
:100A1C00B0F8503091F828219BB2063303EBC20397
:100A2C0000EB4303B3F80054C5F3090535B1B1F835
:100A3C002E212B46D1F83C1101F0C8F9E119D1F85F
:100A4C004431D1F83C212B44C1F84431D1F8403128
:100A5C002A44C1F83C211BB1D1F83801854269D236
:100A6C00274497F82811204602F0B0F918F0800FAF
:100A7C003FF42CAF2168204631F8262092B202EACE
:100A8C00090242F4004221F82620B1F8503004EB60
:100A9C00461696F828209BB2023303EBC20301EBF7
:100AAC004303B3F80024F36BC2F3090272641A44D3
:100ABC00336CF26396F82810002B41D102F08EF9BA
:100ACC0004E791F8283130F82320DB0012F4804F32
:100ADC00B0F8502092B21FD00232134400EB430303
:100AEC00B3F80054C5F3090535B12B46B1F83021E4
:100AFC00D1F83C1101F06AF9E31993F82811226836
:100B0C0032F821309BB203EA0B0343F4004343F069
:100B1C00C00322F8213091E70632134400EB430363
:100B2C00B3F80054C5F30905002DE5D02B46B1F8F8
:100B3C003221DDE791F828112046FFF7B5FD95E746
:100B4C00FFF7D1FDC2E6DFF80C90DFF80CA0DFF860
:100B5C000CB0BBE60F8FFFFF0080FFFF8F8FFFFFF6
:100B6C0038B5436801F007059D42044628D80B06AA
:100B7C001DD501226B0103F128010344014483F8C4
:100B8C00292001230D708B7094F828229A4219D0D9
:100B9C0084F82832206800F0A6FF25B904F50C7102
:100BAC00206801F019F8002084F8280238BD0022D2
:100BBC004B0103F594710344014483F82921E0E7C8
:100BCC00012038BD022038BD38B5436801F00F0252
:100BDC009A42044626D801F0070311F0800F4FEA21
:100BEC00431217D002F1280101440244012082F87B
:100BFC00290000250B708D7094F82832012B13D02E
:100C0C000123206884F8283200F08DFF84F82852E4
:100C1C00284638BD02F5947101440244002082F844
:100C2C002901E6E7012038BD022038BD11F0800F04
:100C3C001BBF01F0070100EB411000EB4110283005
:100C4C0008BF00F594701AB90273C3800020704776
:100C5C00012203811B0C02734381F7E72DE9F34159
:100C6C00054608B901203CE00368DB0710D42B686B
:100C7C009F075DD42B68190700F194802B685A07E5
:100C8C0000F1BE80E869002840F02C81002028E0AB
:100C9C008F4C636803F00C03042B07D0636803F0DC
:100CAC000C03082B09D16368DE0306D523689C036B
:100CBC00DDD56B68002BDAD1D4E76B68B3F5803FD8
:100CCC0012D1236843F480332360FFF77BFA064686
:100CDC0023689803CBD4FFF775FA801B6428F7D9E7
:100CEC00032002B0BDE8F0819BB9236823F4803364
:100CFC002360236823F480232360FFF763FA0646FE
:100D0C0023689903B3D5FFF75DFA801B6428F7D9E4
:100D1C00E6E7B3F5A02F236803D143F480232360C7
:100D2C00CFE723F480332360236823F48023CBE7BD
:100D3C00674C636813F00C0F07D0636803F00C0367
:100D4C00082B10D16368DA030DD423689B0702D5F6
:100D5C002B69012B86D123686A6923F0F80343EAD7
:100D6C00C203236086E72A695A4B6AB101221A60D2
:100D7C00FFF728FA064623689F07ECD4FFF722FA00
:100D8C00801B0228F7D9ABE71A60FFF71BFA06465F
:100D9C00236898077FF56EAFFFF714FA801B0228C3
:100DAC00F6D99DE7AA694A4C4B4BDAB101221A607D
:100DBC00FFF708FA0646636A9B070DD54FF4FA5203
:100DCC00464B1B68B3FBF2F3019300BF019B5A1E09
:100DDC000192002BF9D151E7FFF7F4F9801B02289F
:100DEC00E9D97DE71A60FFF7EDF90646636A9F07BC
:100DFC007FF544AFFFF7E6F9801B0228F6D96FE7C1
:100E0C00334CE369D80024D40127E36943F08053C1
:100E1C00E361E36903F080530093009B304E336829
:100E2C00D90518D5EB68012B26D1236A43F00103B1
:100E3C002362FFF7C7F941F288368046236A9B0785
:100E4C003FD5002F3FF41EAFE36923F08053E361DD
:100E5C0018E70027E2E7336843F480733360FFF749
:100E6C00B1F980463368DA05DCD4FFF7ABF9A0EBB7
:100E7C0008006428F6D933E7ABB9236A41F2883805
:100E8C0023F001032362236A23F004032362FFF798
:100E9C0099F90646236A9807D3D5FFF793F9801B77
:100EAC004045F7D91CE7052B236A03D143F0040313
:100EBC002362BAE723F001032362236A23F00403BD
:100ECC00B6E7FFF77FF9A0EB0800B042B6D907E709
:100EDC0000100240000042428004424218010020EF
:100EEC00007000402A4B5A681C4602F00C02082A7B
:100EFC003DD00023274E022833602BD1FFF762F937
:100F0C000746236899011FD42B6AB3F5803F05D19E
:100F1C006268A96822F400320A436260696A6268F6
:100F2C000B4322F474121343636001233360FFF705
:100F3C0049F9054623689A013FF5A8AEFFF742F937
:100F4C00401B0228F6D9CBE6FFF73CF9C01B022860
:100F5C00D7D9C5E6FFF736F9054623689B017FF51F
:100F6C0095AEFFF72FF9401B0228F6D9B8E60128F9
:100F7C003FF4B7AE58682B6A00F480329A427FF483
:100F8C0071AE6B6A00F47010C01A18BF0120A8E68D
:100F9C00001002406000424230B5194B87B002ACE1
:100FAC0003F11005224618685968083303C2AB4296
:100FBC001446F7D101238DF80430022311498DF822
:100FCC0005304B6803F00C02082A17D1C3F3834297
:100FDC0006A80244DB0312F8102C0CD54B680A4807
:100FEC00C3F34043504306AA134413F8143CB0FB1C
:100FFC00F3F007B030BD05485043FAE70248F8E774
:10100C00903100080010024000127A0000093D00E7
:10101C002DE9F0410D46044610B90120BDE8F081E0
:10102C00454A136803F007038B4229D321688E07C6
:10103C0031D4CA0744D4404A136803F007039D42D5
:10104C0067D322683D4D12F0040F6ED1130706D5FD
:10105C006B68226923F4605343EAC2036B60FFF7A9
:10106C009BFF6B68364AC3F30313D35CD840354BF4
:10107C001860354B1868FFF763F80020BDE8F08165
:10108C00136823F007030B431360136803F0070383
:10109C009942C2D1CAE7294B11F0040F1EBF5A68FE
:1010AC0042F4E0625A60080742BF5A6842F4605248
:1010BC005A605A68A06822F0F00202435A60B8E7FE
:1010CC0062681E4E012A33681BD113F4003FA4D072
:1010DC00736841F2883823F0030313437360FFF7FE
:1010EC0071F807467368626803F00C03B3EB820F68
:1010FC00A1D0FFF767F8C01B4045F3D90320BDE82A
:10110C00F081022A02D113F0007FE0E713F0020F06
:10111C00DDE7136823F007032B431360136803F018
:10112C0007039D427FF479AF8BE76B68E16823F48A
:10113C00E0630B436B6089E7002002400010024023
:10114C00A0310008180100200400002003682DE9DC
:10115C00F341D907054620D5354CE369DA0032D482
:10116C000127E36943F08053E361E36903F08053A3
:10117C000193019B2F4E3368DB0526D5236A13F4AC
:10118C00407336D1236A6A6823F440731343236295
:10119C001FB1E36923F08053E3612868830706D508
:1011AC00234AA968536823F440430B43536010F05F
:1011BC0010001BD01E4AE9685368002023F48003FA
:1011CC000B43536012E00027D4E7336843F4807379
:1011DC003360FEF7F7FF80463368D805CED4FEF7B0
:1011EC00F1FFA0EB08006428F6D9032002B0BDE89B
:1011FC00F0816A6802F440729342C3D001200E4A17
:10120C00236A1060002023F4407110602162D9071A
:10121C00B8D5FEF7D7FF41F288380646236A9A07FD
:10122C00B0D4FEF7CFFF801B4045F7D9DDE700BFF8
:10123C00001002400070004040044242036800204D
:10124C00DA6842F00102DA609A6802F00702062AB4
:10125C001EBF1A6842F001021A607047704770474F
:10126C0070477047036810B51A69044691070ED58C
:10127C00DA6892070BD56FF002021A6101229B69A2
:10128C0002779B0777D0FFF7EAFF002323772368C9
:10129C001A69500710D5DA6851070DD56FF00402A2
:1012AC001A6102229B69227713F4407F204668D092
:1012BC00FFF7D5FF0023237723681A6912070FD590
:1012CC00DA6810070CD56FF008021A610422DB698A
:1012DC002277990720465AD0FFF7C1FF00232377C6
:1012EC0023681A69D20610D5DA68D0060DD56FF0CE
:1012FC0010021A610822DB69227713F4407F204622
:10130C004BD0FFF7ACFF0023237723681A69D10772
:10131C0008D5DA68D20705D56FF0010220461A61AC
:10132C0001F068FA23681A69100608D5DA68110604
:10133C0005D56FF0800220461A6100F044F923684D
:10134C001A69520608D5DA68500605D56FF04002C6
:10135C0020461A61FFF785FF23681A69910622D58A
:10136C00DA6892061FD56FF020022046BDE81040C7
:10137C001A6100F027B9FFF771FF2046FFF770FFE5
:10138C0083E7FFF76BFF2046FFF76AFF92E7FFF753
:10139C0065FF2046FFF764FFA0E7FFF75FFF2046DD
:1013AC00FFF75EFFAFE710BD1A4A036890420AD000
:1013BC00B0F1804F07D0A2F59432904203D002F5E1
:1013CC008062904215D14A6823F070031343114A8E
:1013DC0090420AD0B0F1804F07D0A2F594329042DF
:1013EC0003D002F58062904203D1CA6823F44073A3
:1013FC0013434A6923F08003134303608B68C36271
:10140C000B688362034B984204BF0B69036301238F
:10141C0043617047002C014010B50446A0B190F810
:10142C003D3003F0FF021BB980F83C2001F0FEFBBD
:10143C000223206884F83D30211DFFF7B5FF0123FE
:10144C00002084F83D3010BD012010BD10B584681B
:10145C000A4324F47F4442EA03232343836010BDF0
:10146C0090F83C3070B5012B04464FF0020019D0B7
:10147C00012384F83D00206884F83C30836823F411
:10148C007F4323F0770383600B68402B65D015D81E
:10149C00102B0CD007D853B10123002084F83D3019
:1014AC0084F83C0070BD202B01D0302BF4D1826825
:1014BC0043F0070322F0700213431AE0602B34D080
:1014CC0019D8502BE8D14A68CE68016A056A21F018
:1014DC000A0125F00105056283690A4323F0F00334
:1014EC0043EA061383610262836823F0700343F0BE
:1014FC0057038360D0E7702B0CD0B3F5005FCBD1D2
:10150C00CB684A688968FFF7A1FF2268936843F4A7
:10151C00804308E0CB684A688968FFF797FF226828
:10152C00936843F077039360B6E74D68CE68016A21
:10153C0021F0100101628269036A22F4704223F0E7
:10154C00A00343EA051342EA063282610362836810
:10155C0023F0700343F06703CBE74A68CE68016A57
:10156C00056A21F00A0125F00105056283690A4329
:10157C0023F0F00343EA061383610262836823F0CD
:10158C00700343F04703B4E790F83C3030B5012BBF
:10159C004FF0020314D0046880F83D306268A368F1
:1015AC000D68496822F0700223F080030B432A4334
:1015BC006260A360012380F83D30002380F83C304A
:1015CC00184630BD7047704784B001A880E80E0003
:1015DC0004B000207047B0F840309BB243F43F4356
:1015EC00A0F8403000207047B0F8403023F47C5312
:1015FC005B045B0CA0F84030002070470020704763
:10160C0084B010B503AC84E80E00BDE81040002295
:10161C000123A0F84030A0F84020A0F84420A0F806
:10162C005020B0F8403004B09BB243F43F43A0F8D4
:10163C004030104670470000F0B50D78034630F886
:10164C002520C87822F4EC4222F070021204120C0D
:10165C0003284ED8DFE800F0024A044742F4007237
:10166C00002048F28004224323F825200E78AB4D4D
:10167C0033F82620344392B22A40224323F8262002
:10168C000C7B0A78002C40F088804E78CC8896B37E
:10169C00B3F8506003EB021224F00104B6B202F569
:1016AC008062A4B294530C7833F82420560609D5E2
:1016BC0033F8242092B22A4042F4004242F0C00295
:1016CC0023F82420CA780978012A33F82120944C75
:1016DC0092B202EA040201D082F0200242F40042EB
:1016EC0042F08002CBE042F4C062B9E742F480627F
:1016FC00B6E70120B5E7B3F8505003EB021224F023
:10170C000104ADB202F58162A4B254530A78B3F865
:10171C0050600D6903EB0212B6B202F20C425DBBD3
:10172C00945B24F4F8442404240C9453945B6FEAE3
:10173C0044446FEA5444A4B294530C7833F82420F4
:10174C0055040DD533F8242022F4E04222F0700227
:10175C001204120C42F4404242F0800223F824207E
:10176C00097833F8212022F4804222F0700212040E
:10177C00120C82F44052B1E73E2D05D86C08ED07EF
:10178C0048BF0134A402D6E76F09EC06654C08BFCC
:10179C0007F1FF3744EA8724CDE733F82240A4B29F
:1017AC002C4044F4014444F0800423F822400A788D
:1017BC000C89B3F8506003EB021224F00104B6B2AA
:1017CC0002F58062A4B294530A784C89B3F8506045
:1017DC0003EB021224F0010402F58162A4B2B6B24A
:1017EC0094534A780C78002A4CD133F824205204B4
:1017FC0009D533F8242092B22A4042F4404242F0F8
:10180C00800223F824200C7833F8242057060DD5B9
:10181C0033F8242022F4E04222F070021204120C5D
:10182C0042F4004242F0C00223F824200C7833F832
:10183C00242022F4E04222F070021204120C42F432
:10184C00004242F0C00223F8242048F280040D78B4
:10185C0033F8252022F4804222F070021204120C7C
:10186C0082F44052224323F82520097833F82120B2
:10187C0022F4E04222F040021204120C224323F81C
:10188C002120F0BD33F82420560409D533F8242048
:10189C0092B22A4042F4404242F0800223F82420C3
:1018AC000C7833F8242052060DD533F8242022F47A
:1018BC00E04222F070021204120C42F4004242F098
:1018CC00C00223F824200C78154D33F8242022F480
:1018DC00E04222F070021204120C42F4404242F038
:1018EC00800223F82420CA780C78012A33F82420AB
:1018FC0092B202EA050218BF82F0200242F40042C2
:10190C0042F0800223F82420097833F8212022F4B5
:10191C00804222F070021204120CDFE68F8FFFFF60
:10192C00BF8FFFFF0080FFFF10B50C7B4B780A7850
:10193C00002C3DD113B330F822305C060DD530F8B5
:10194C00223023F4E04323F070031B041B0C43F4FC
:10195C00004343F0C00320F822300A7830F82230DC
:10196C0023F4E04323F040031B041B0C43F400431B
:10197C0043F0800320F82230002010BD30F82230D4
:10198C005B040DD530F8223023F4E04323F07003D0
:10199C001B041B0C43F4404343F0800320F822301B
:1019AC000A7830F8223023F4804323F07003DBE70D
:1019BC00002B4ED130F822305C040DD530F822309B
:1019CC0023F4E04323F070031B041B0C43F440434B
:1019DC0043F0800320F822300A7830F822305B067E
:1019EC000DD530F8223023F4E04323F070031B04B0
:1019FC001B0C43F4004343F0C00320F822300A7858
:101A0C0030F8223023F4E04323F070031B041B0C4A
:101A1C0043F4004343F0C00320F8223048F2800224
:101A2C000C7830F8243023F4804323F070031B042B
:101A3C001B0C134320F82430097830F8213023F4A0
:101A4C00E04323F040031B041B0C134320F821300C
:101A5C0092E730F822305C040DD530F8223023F4B4
:101A6C00E04323F070031B041B0C43F4404343F08E
:101A7C00800320F822300A7830F822305B060DD52E
:101A8C0030F8223023F4E04323F070031B041B0CCA
:101A9C0043F4004343F0C00320F822300A7830F8B6
:101AAC00223023F4E04323F070031B041B0C43F49B
:101ABC00404343F0800320F8223048F280020C7837
:101ACC0030F8243023F4E04323F040031B041B0CB8
:101ADC00134320F82430097830F8213023F4804364
:101AEC0023F07003AFE74B780A788BB130F82230D3
:101AFC0023F4E04323F040031B041B0C83F010037E
:101B0C0043F4004343F0800320F822300020704758
:101B1C0030F8223023F4804323F070031B041B0C99
:101B2C0083F48053ECE70B7B43BB4B780A783BB3D5
:101B3C0030F822305B060DD530F8223023F4E04328
:101B4C0023F070031B041B0C43F4004343F0C0034D
:101B5C0020F82230CB78012B10D00A7830F82230C4
:101B6C0023F4E04323F040031B041B0C83F02003FD
:101B7C0043F4004343F0800320F8223000207047E8
:101B8C0030F822305B040DD530F8223023F4E043DA
:101B9C0023F070031B041B0C43F4404343F08003FD
:101BAC0020F822300A7830F8223023F4804323F0D6
:101BBC0070031B041B0C83F44053D9E711B9802329
:101BCC00A0F84C3000207047002070470020704770
:101BDC00B0F8440080B270470020704700EB42021E
:101BEC00013302F580625B0802EB83039A4200D159
:101BFC00704731F8020B22F8040BF7E770B50D466D
:101C0C00497804460129AA692B69287B66D19A4236
:101C1C009DBF0023AB611346D21A88BFAA619EB246
:101C2C0008BB3346EA8869692046FFF7D7FFB4F84A
:101C3C0050302A7899B204F2044312010B44D65264
:101C4C002A7834F8223023F4E04323F040031B04B9
:101C5C001B0C83F0300343F4004343F0800324F85F
:101C6C002230002070BD2B78204634F823201B0135
:101C7C0012F0400FB4F8502091B215BF04F20C4290
:101C8C0004F204425218521815BFD652D6526A8921
:101C9C002A8933466969FFF7A1FF6B782A7873B9F3
:101CAC0034F8223023F4E04323F070031B041B0CA4
:101CBC0043F4004343F0C00324F82230C0E7012B67
:101CCC00BED134F8223023F4E04323F070031B041C
:101CDC001B0C43F4404343F08003EDE79A4293BF5F
:101CEC000023D21AAA61AB6198BF13462A78B0B907
:101CFC00B4F85000120181B204F20C400844002BDD
:101D0C0044D1835A23F4F8431B041B0C8352835A8B
:101D1C006FEA43436FEA53439BB283523FE0A1B94E
:101D2C00B4F85000120181B204F204400844E3B943
:101D3C00815A21F4F8410904090C8152815A6FEA45
:101D4C0041416FEA514189B2815269782A78002960
:101D5C00CED0012923D1B4F85010120188B204F26C
:101D6C000C4101449BB28B5219E03E2B05D859080B
:101D7C00DE0748BF01318902E5E75E09D906124941
:101D8C0008BF06F1FF3641EA8621DCE73E2B12D86C
:101D9C005908DE0748BF0131890289B281522A787D
:101DAC0034F8223023F4804323F070031B041B0C03
:101DBC0083F440534FE75909DB06034B08BF01F18D
:101DCC00FF3143EA8123A7E70080FFFF00EB4202CB
:101DDC00F0B502F580625D08084617462E460230C3
:101DEC0036B9DB0744BF32F8253001F81530F0BDA9
:101DFC0037F8044B013EA4B200F8024C240A00F858
:101E0C00014CECE7D0F8BC3210B5D0F8B8425BB15D
:101E1C0094F80002FF2807D09B6894F80122214611
:101E2C009847FF2384F80032002010BD4323038021
:101E3C00004870474000002043230380004870474F
:101E4C00840000204323038000487047D400002006
:101E5C000A23038000487047C800002038B50546A7
:101E6C00D0F8B84201F0AEF8D5F8B832C4F80C028C
:101E7C004BB1D5F8BC3204F50371DB68D4F804021D
:101E8C009847002038BD022038BDF8B5D0F8B862AC
:101E9C00CEB1142303FB0103DA6982B1D0F8C0423E
:101EAC0004EB4114A56BB2FBF5F405FB142434B917
:101EBC00DC612246234601F069F82046F8BD00207B
:101ECC00C6F81402F8BD0220F8BD2DE9F7434FF017
:101EDC0000080A78054612F060040E46D0F8B87275
:101EEC008DF80580ADF8068028D0202C47D1CC8801
:101EFC004B78E4B1120611D5D0F8BC223946D2F891
:101F0C00089018462246C847F2883946284600F001
:101F1C002EFC4446204603B0BDE8F08387F800321F
:101F2C0087F801422246394600F036FCF1E7D0F83A
:101F3C00BC22184695682246A847EBE74F780A2F33
:101F4C000DD00B2F15D0D7B990F89C32032B14D190
:101F5C0002220DF1060100F00AFC3C46DAE790F88B
:101F6C009C32032B09D101220DF1050100F0FFFB7E
:101F7C00D0E790F89C32032BCCD03146284600F0A9
:101F8C00CFFB0224C6E738B504460025812100F0BA
:101F9C00B5FF0121E562204600F0B0FFC4F86C519A
:101FAC008221204600F0AAFFD4F8B83225644BB148
:101FBC00D4F8BC325B689847D4F8B80201F00AF840
:101FCC00C4F8B852002038BD037C2DE9F04104461A
:101FDC00CBBB4FF4007302228121012500F07EFF60
:101FEC004FF40073E56229460222204600F076FF8A
:101FFC00C4F86C510125082303228221204600F0ED
:10200C006DFF25644FF4077000F0E0FF0646C4F83E
:10201C00B80258B30027D4F8BC321B68984794F820
:10202C001080C6F81472C6F81872B8F1000F13D1EC
:10203C004FF40073D6F804222946204600F0B4FF72
:10204C004046BDE8F081012540230222812100F0A9
:10205C0045FFE5624023C6E74023D6F80422294613
:10206C00204600F0A1FF3846BDE8F0812846BDE8C7
:10207C00F08119B1C0F8BC120020704702207047E3
:10208C00D0F8B8320020C3F80812C3F810227047F9
:10209C00D0F8B8320020C3F804127047D0F8B82238
:1020AC0010B562B1047C44B94FF40073D2F8042229
:1020BC00012100F079FF002010BD4023F6E702203B
:1020CC0010BD08B580B1D0F8B43213B10023C0F8FC
:1020DC00B43209B1C0F8B0120123027080F89C32FE
:1020EC0000F0AEFE002008BD022008BD19B1C0F8FA
:1020FC00B412002070470220704708B500F0E0FED3
:10210C00002008BD08B5D0F8B4320BB9022008BDC8
:10211C001B6898470028F9D108BD08B5D0F8B4322F
:10212C005B689847002008BD38B500F52A75044651
:10213C00284600F0E1FA012394F8A812C4F894326E
:10214C00B4F8AE32C4F8983201F01F03012B0ED054
:10215C0007D3022B10D001F08001204600F0DCFEEA
:10216C0003E02946204600F0F5F8002038BD29464A
:10217C00204600F013FAF8E72946204600F033FA1F
:10218C00F3E770B50546164649BBD0F89432032BDD
:10219C001ED1D0F86031D0F8642193420BD99B1A30
:1021AC009A42C0F860318CBF9AB292B2314600F0BC
:1021BC0002FB002070BDD0F8B4321B6923B190F83B
:1021CC009C22032A00D19847284600F0FCFAF0E73D
:1021DC00052BEED1C5F8941200F09EFEE9E7D0F87D
:1021EC00B4329B692BB190F89C22032A01D19847F9
:1021FC00DFE7022070BD70B5134604460E46002979
:10220C0047D1D0F89422022A3CD1056A426A954201
:10221C0013D9AA1A0262194692B200F0B5FA3346E3
:10222C001A461946204600F0BFFE94F8A032002052
:10223C00012B3AD184F8A00270BDC369B3FBF2F54F
:10224C0002FB153565B99A420AD8D0F89822934208
:10225C0006D22A4600F098FAC4F898522B46DFE7CB
:10226C00D4F8B432DB682BB194F89C22032A01D148
:10227C00204698478021204600F04EFE204600F074
:10228C00ADFAD2E732F00403CFD1802100F044FE46
:10229C00CBE7D0F8B4325B6933B190F89C22032AB7
:1022AC0002D19847002070BD022070BD002270B58D
:1022BC000446012540261146402300F00FFE33460C
:1022CC008021C4F85851C4F864610022204600F003
:1022DC0005FE0021D4F8B832A561666284F89C52E0
:1022EC00C4F894126160C4F8A41223B1D4F8B432C7
:1022FC0020465B689847002070BD01740020704731
:10230C0090F89C3280F89D32042380F89C32002097
:10231C00704790F89C32042B04BF90F89D3280F8E3
:10232C009C320020704708B590F89C22032A04D1F7
:10233C00D0F8B432DB6903B19847002008BD10B562
:10234C000446802100F0E8FD2046BDE81040002145
:10235C0000F0E2BD37B50B78044603F06003202B88
:10236C000D4612D0402B10D0002B5CD14B78092B92
:10237C0058D8DFE813F0E90005015700FE005700BC
:10238C00840013005700D200A000D4F8B4322946C0
:10239C009B6820469847002003B030BD0023ADF861
:1023AC0006304B881A0A013A062A3BD8DFE802F0BD
:1023BC0004202D3A3A525C00D0F8B0321B680DF173
:1023CC000601207C9847BDF8062052B1EB8843B13A
:1023DC009A4228BF1A4601462046ADF8062000F066
:1023EC00C6F9EB88002BD6D1204600F0ECF9D2E7E9
:1023FC00027CD0F8B43232B99B6A0DF106009847D2
:10240C0002234370DFE7DB6AF7E7DBB2052B09D861
:10241C00DFE803F0030C1014181CD0F8B0325B6822
:10242C00002BCCD12046FFF78AFFB4E7D0F8B032AE
:10243C009B68F5E7D0F8B032DB68F1E7D0F8B03242
:10244C001B69EDE7D0F8B0325B69E9E7D0F8B03240
:10245C009B69E5E7037C002BE4D1D0F8B4320DF195
:10246C0006005B6B9847AEE7037C002BDAD1D0F803
:10247C00B4320DF106001B6B98470723C1E78B881C
:10248C00002BCFD1CB88002BCCD14D887F2DC9D838
:10249C0090F89C32E9B2032BC4D080F89E1200F065
:1024AC0067FD204600F08FF91DB1022384F89C32A1
:1024BC0071E70123FAE78978374D01292970B1D8E2
:1024CC0090F89C32022B08D0032B14D0FFF737FF67
:1024DC0029782046FFF721FE5DE7002984D00121F1
:1024EC000323416080F89C322046FFF70BFE022844
:1024FC007FF47AAF96E731B90223416080F89C32C1
:10250C00FFF70BFE70E7416801293FF46DAFC9B2CC
:10251C00FFF703FE29786160E6E7CA88012A81D1BA
:10252C0090F89C32002B3FF47DAF022B04D9032B87
:10253C007FF478AF011D03E00146002341F8083F0A
:10254C00204600F014F926E790F89C32013B022B50
:10255C003FF668AFCB88022B7FF464AF0123C360D6
:10256C00D0F8A4320BB10323C360022204F10C0196
:10257C00E6E74B88012B7FF40EAFC4F8A43233E7A7
:10258C0090F89C32013B022B3FF64CAF4B88012B51
:10259C007FF401AF0023F0E79801002038B50B78E9
:1025AC00044603F06003202B0D4602D0402B00D0D4
:1025BC00B3B994F89C32013B022B10D82B79012B28
:1025CC000DD8D4F8B43229469B6820469847EB883E
:1025DC001BB910B9204600F0F6F8002038BD204693
:1025EC00FFF7ADFEF9E738B50A78044602F0600251
:1025FC00202A0B4613D0402A11D06AB95D788A88FC
:10260C00012DD1B21FD035D3032D05D190F89C22CA
:10261C00022A26D0032A0AD0FFF791FE05E0D4F84F
:10262C00B4221946926820469047002038BD5A883B
:10263C002AB94A0603D0DB880BB900F06DFC2046A2
:10264C0000F0C1F8F1E790F89C22022A09D0032A85
:10265C00E2D15B88002BE8D14D06F0D000F06AFC8B
:10266C00EDE74B0616D000F057FC8021204600F019
:10267C0053FCDAE790F89C32022B0DD0032BCBD114
:10268C00142312F0800F01F00F0203FB020214D08E
:10269C009269EAB92046BFE74906FBD113064FF011
:1026AC0000034FF002024CBF00F1140100F5AA71B7
:1026BC000B60204600F05BF8B7E7D2F85821002AEF
:1026CC00E8D001F07F0503FB050505F5AA7504E0CC
:1026DC0001F07F0505FB0335054411F07F0303D1A1
:1026EC002B6002222946E4E7204600F031FC08B1B9
:1026FC000123F5E72860F4E70B7803704B784370FF
:10270C00CA788B7803EB022343804A790B7903EB6D
:10271C0002238380CA798B7903EB0223C380704731
:10272C0010B50446802100F0F7FB2046BDE81040B0
:10273C00002100F0F1BB30B588B105462B1A15F815
:10274C00014BDBB2002CF9D101335B0013800B7011
:10275C0003234B700223013810F8015F05B930BD1B
:10276C005A1CCD54D2B20233DBB28C54F4E713466C
:10277C00022210B5C0F89422C3610A4603620021FC
:10278C0000F004FC002010BD08B513460A460021D9
:10279C0000F0FCFB002008BD1346032210B5C0F866
:1027AC009422C0F85C310A46C0F86031002100F078
:1027BC00FBFB002010BD08B513460A46002100F0B3
:1027CC00F3FB002008BD08B50423C0F894320023A5
:1027DC001A46194600F0DAFB002008BD08B505239F
:1027EC00C0F8943200231A46194600F0DDFB002095
:1027FC0008BD0000064A1368322BDCBF013313609E
:10280C00044A1368322BDCBF01331360704700BFDE
:10281C00A0010020A4010020484B10B51B68032B1D
:10282C0000F28980DFE803F0020D0F11444B1968A8
:10283C0000231C468B4236DA640044F00104013359
:10284C00F8E7404BF3E7404BF1E7404B1A68012A9D
:10285C006EDD032A4FF00801CCBF04230023052AA8
:10286C0043EA0103CCBF02240024062AC8BF43F06C
:10287C000103374A234311680129CCBF802400246B
:10288C00032944EA0304CCBF40230023052943EA6F
:10289C000403CCBF20240024062943EA0403CCBF44
:1028AC00102400241C43E2434FF4805102F0010237
:1028BC002848FDF7EBFD84F00202C2F340024FF40E
:1028CC0080412448FDF7E2FD84F00402C2F380024B
:1028DC004FF400411F48FDF7D9FD84F00802C2F304
:1028EC00C0024FF400511B48FDF7D0FD84F01002DC
:1028FC00C2F3001220211748FDF7C8FD84F0200216
:10290C00C2F3401240211348FDF7C0FD84F0400291
:10291C00C2F3801280210F48FDF7B8FD84F08002CD
:10292C00C2F3C0121021BDE810400A48FDF7AEBD3D
:10293C0000210B4693E70024B5E700BF9C01002063
:10294C00D8030020CC0300201C040020D40300205A
:10295C00D0030020000C014040280ED10D4A136812
:10296C00322B16DD00210C48116003680133032B58
:10297C00C8BF0B460360FFF74FBF082809D1064AB2
:10298C001368013B48BF032313600022034B1A60FA
:10299C00F1E77047A00100209C010020A401002059
:1029AC00282270B594B00DEB0200002100F0D6FB8C
:1029BC00142210250DEB0200002100F0CFFB2A465B
:1029CC00002101A800F0CAFB4FF4803301240B93C3
:1029DC00022612934FF480130AA813930A940E94B0
:1029EC001196FEF73BF90F234FF4A06205930023D9
:1029FC00214605A80793089209930696FEF708FB53
:102A0C004FF4800301A801950493FEF79FFB14B0CB
:102A1C0070BD0000F0B58BB0FDF7B6FBFFF7C0FF43
:102A2C001022002106A800F099FB684B4FF2F00130
:102A3C009A69674842F020029A619A69002402F070
:102A4C0020020092009A9A69012542F008029A61CC
:102A5C009A69022702F008020192019A9A695D4E66
:102A6C0042F010029A619A6902F010020292029AE4
:102A7C009A6942F004029A619B69002203F00403F4
:102A8C000393039BFDF702FD00224FF400415248D3
:102A9C00FDF7FCFC4FF2F00306A94D480693079591
:102AAC0008940997FDF710FC402306A94B480693A0
:102ABC0007960894FDF708FC4FF4FC5306A9474809
:102ACC00069307940894FDF7FFFB4FF4004306A907
:102ADC0041480693079508940997FDF7F5FB0823E1
:102AEC0006A93B48069307960894FDF7EDFB29468B
:102AFC0022460920FDF790FB0920FDF7C1FB294672
:102B0C0022461720FDF788FB1720FDF7B9FB00F0D4
:102B1C00EBF81022214606A800F020FB4FF0804372
:102B2C002F4D049485E8180045F6C0532846EB60F9
:102B3C00AC602C61AC610594FEF76EFC4FF48053D5
:102B4C0006A928460693FEF78BFC04A92846049494
:102B5C000594FEF719FD2846FEF770FB05251E4E61
:102B6C00002494FBF5F0FDF733FB01224FF40041F8
:102B7C003046FDF78BFCC4F1640090FBF5F0FDF7DB
:102B8C0027FB013400224FF400413046FDF77EFC58
:102B9C00642CE6D1632494FBF5F0FDF719FB0122BC
:102BAC004FF400413046FDF771FCC4F1640090FB1A
:102BBC00F5F0FDF70DFB00224FF400413046FDF718
:102BCC0065FC14F1FF34E6D2CAE700BF00100240E6
:102BDC00000C0140000011100008014000100140E1
:102BEC00DC030020704700000E4B82B09A6942F063
:102BFC0001029A619A6902F001020092009ADA6964
:102C0C0042F08052DA61DB69074A03F0805301938A
:102C1C00019B536823F0E06343F00073536002B0F0
:102C2C00704700BF0010024000000140036807B568
:102C3C00B3F1804F12D103F50433DA691C2042F052
:102C4C000102DA610022DB69114603F001030193F2
:102C5C00019BFDF7E1FA1C20FDF712FB03B05DF8B8
:102C6C0004FB7047FEE7FEE7FEE7FEE770477047A0
:102C7C007047FDF79BBA0820FDF70EBC0148FDF725
:102C8C0049BD00BFB40E00204020FDF705BC00007C
:102C9C000148FEF7E7BA00BFDC0300200F4B1A68AF
:102CAC0042F001021A6059680D4A0A405A601A68CB
:102CBC0022F0847222F480321A601A6822F4802284
:102CCC001A605A6822F4FE025A604FF41F029A608E
:102CDC004FF00062034B9A60704700BF0010024037
:102CEC000000FFF800ED00E008B500220E490F4887
:102CFC00FFF7E7F908B1FFF775FF0D490B48FFF730
:102D0C00F5F908B1FFF76EFF0A490848FFF7B1F96A
:102D1C0008B1FFF767FF0548FFF7EFF918B1BDE8F9
:102D2C000840FFF75FBF08BD2C01002020040020E5
:102D3C00080000201C010020002070470020704774
:102D4C0010B5054C01462046FFF7A2F92046FFF7C7
:102D5C00A5F9002010BD00BF2004002010B5064CC2
:102D6C00002206492046FFF78BF905492046FFF75C
:102D7C008FF9002010BD00BF20040020CC0A0020D9
:102D8C00E406002007B50D4B02689A4212D103F5F8
:102D9C00DA33DA69142042F40002DA610022DB69CA
:102DAC00114603F400030193019BFDF735FA14203F
:102DBC00FDF766FA03B05DF804FB00BF005C004051
:102DCC0000F50C71D0F86802FFF7AEB900EB4113B7
:102DDC00D3F83C21D0F86802FFF7D3B900EB4113CC
:102DEC00DA6BD0F86802FFF706BAD0F86802FFF782
:102DFC009ABA836810B5022B044601D0FFF7F2FE95
:102E0C00D4F868020121FFF778FAD4F86802BDE81B
:102E1C001040FFF74BBA000010B50446D0F868021A
:102E2C00FFF76EFAA36923B1024A136943F0060354
:102E3C00136110BD00ED00E0D0F86802FFF769BA2D
:102E4C000223082210B51C4904461C4880E80E00D9
:102E5C000023C4F8C002C0F868428361C3610362F6
:102E6C00FDF726FB08B1FFF7BDFE00221823114623
:102E7C00D4F8C002FDF7DAFE582300228021D4F8E2
:102E8C00C002FDF7D3FEC02300228121D4F8C0027A
:102E9C00FDF7CCFE4FF4887300220121D4F8C00258
:102EAC00FDF7C4FE4FF4807300228221D4F8C002D7
:102EBC00FDF7BCFE002010BD005C0040B40E0020ED
:102ECC0008B5D0F8C002FDF768FB03289ABF024B87
:102EDC00185C022008BD00BFB031000810B51C46BC
:102EEC00D0F8C00213462246FDF782FB03289ABF96
:102EFC00014B185C022010BDB031000808B5D0F8A9
:102F0C00C002FDF7A8FB03289ABF024B185C0220F5
:102F1C0008BD00BFB031000808B5D0F8C002FDF7FD
:102F2C001FFE03289ABF024B185C022008BD00BF8D
:102F3C00B031000808B5D0F8C002FDF745FE0328F3
:102F4C009ABF024B185C022008BD00BFB0310008CC
:102F5C000A06D0F8C03245BF01F07F0103EB4113E4
:102F6C0003EB411393F82A0058BF93F82A017047DA
:102F7C0008B5D0F8C002FDF727FB03289ABF024B17
:102F8C00185C022008BD00BFB031000808B5D0F8AD
:102F9C00C002FDF7A8FB03289ABF024B185C022065
:102FAC0008BD00BFB031000808B5D0F8C002FDF76D
:102FBC007BFB03289ABF024B185C022008BD00BFA4
:102FCC00B0310008D0F8C002FDF786BB004870474E
:102FDC00A801002070477047122301480B807047EE
:102FEC0048010020042301480B8070475C0100203D
:102FFC00002330B51D46DCB2A24200D830BD040F10
:10300C00092C94BF3034373401F8134001EB4304DE
:10301C00000165700133EEE71A2310B50B80094BE4
:10302C00186808331B68C0180AD0074B08221C68A4
:10303C000649FFF7DDFF042205492046FFF7D8FFBC
:10304C00044810BDE8F7FF1FECF7FF1F62010020DA
:10305C00720100206001002010B5044C0A4604489F
:10306C002146FFF768FB204610BD00BF2011002051
:10307C00CD31000810B5044C0A4604482146FFF730
:10308C005AFB204610BD00BF20110020E031000883
:10309C0010B5044C0A4604482146FFF74CFB204669
:1030AC0010BD00BF20110020B431000810B5044C35
:1030BC000A4604482146FFF73EFB204610BD00BFE0
:1030CC0020110020BF310008002103E00B4B5B589E
:1030DC00435004310A480B4B42189A42F6D30A4A21
:1030EC0002E0002342F8043B084B9A42F9D3FFF765
:1030FC00D5FD00F00FF8FFF78DFC7047003200088B
:10310C00000000207C0100207C0100202013002006
:10311C00FEE7000070B500250C4E0D4CA41BA4104E
:10312C00A54209D100F022F800250A4E0A4CA41B36
:10313C00A410A54205D170BD56F82530984701352D
:10314C00EEE756F8253098470135F2E7F8310008DC
:10315C00F8310008F8310008FC310008034602443D
:10316C00934200D1704703F8011BF9E7F8B500BF93
:10317C00F8BC08BC9E467047F8B500BFF8BC08BC4C
:04318C009E467047A4
:1031900002030405060708090A0B0C0D0E0F101098
:1031A00000000000000000000102030406070809F7
:1031B0000002010243444320436F6E666967004387
:1031C000444320496E746572666163650053544DD3
:1031D0006963726F656C656374726F6E69637300A7
:1031E00053544D3332205669727475616C20436FAD
:0831F0006D506F7274000000C5
:0431F8003101000899
:0431FC000D010008B9
:103200000100000010000000D51F0008931F0008F7
:10321000D71E000800000000111E0008971E0008BD
:10322000691E00080000000000000000000000000F
:10323000451E0008391E0008511E00085D1E0008CA
:1032400009024300020100C0320904000001020229
:1032500001000524001001052401000104240202DC
:103260000524060001070582030800100904010077
:10327000020A000000070501024000000705810264
:103280004000000009024300020100C032090400AE
:1032900000010202010005240010010524010001C3
:1032A0000424020205240600010705820308001019
:1032B00009040100020A00000007050102000200E3
:1032C00007058102000200000A060002000000401B
:1032D0000100000009074300020104C03209040094
:1032E0000001020201000524001001052401000173
:1032F00004240202052406000107058203080010C9
:1033000009040100020A0000000705010240000054
:1033100007058102400000000024F400692D000828
:10332000452D0008492D00084D2D0008E52F000807
:10333000F12F0008653000088130000825300008B2
:103340009D300008B930000812010002020200405E
:103350008304405700020102030100000403090432
:103360001A03000000000000000000000000000040
:0C33700000000000000000000000000051
:04000005080030D5EA
:00000001FF
