:020000040800F2
:1000000000500020992C0008C9270008CB270008C1
:10001000CD270008CF270008D127000800000000E6
:10002000000000000000000000000000D3270008CE
:10003000D527000800000000D7270008D9270008AE
:10004000E12C0008E12C0008E12C0008E12C00085C
:10005000E12C0008E12C0008E12C0008E12C00084C
:10006000E12C0008E12C0008E12C0008E12C00083C
:10007000E12C0008E12C0008E12C0008E12C00082C
:10008000E12C0008E12C0008E12C0008E12C00081C
:10009000DD270008E12C0008E12C0008E12C000815
:1000A000E12C0008E12C0008E12C0008E12C0008FC
:1000B000E12C0008E12C0008E12C0008E12C0008EC
:1000C000E12C0008E12C0008E12C0008E12C0008DC
:1000D000E12C0008E12C0008E12C0008E12C0008CC
:1000E000E12C0008E12C0008E12C000800000000D1
:1000F0000000000000000000000000000000000000
:0C01000000000000000000005FF808F1A3
:10010C0010B5054C237833B9044B13B10448AFF345
:10011C0000800123237010BDE401002000000000CA
:10012C00E43B000808B5034B1BB103490348AFF38C
:10013C00008008BD00000000E8010020E43B00083E
:10014C0038B50E4B054618784FF47A73B3FBF0F3C1
:10015C000B4A1068B0FBF3F000F0A0F8044658B955
:10016C000F2D09D8024629464FF0FF3000F054F805
:10017C00044B20461D6038BD012038BD0000002016
:10018C001C01002004000020074A08B51368032056
:10019C0043F01003136000F02DF80020FFF7D0FFA0
:1001AC0002F0EAFA002008BD00200240034A044B8A
:1001BC0011681B780B441360704700BF500400207B
:1001CC0000000020014B1868704700BF500400204D
:1001DC0038B50446FFF7F6FF0546631C1EBF044BFB
:1001EC001B78E418FFF7EEFF401B8442FAD838BDA9
:1001FC0000000020074A0002D36800F4E06023F4FA
:10020C00E0631B041B0C43F0BF6343F40033034354
:10021C00D360704700ED00E0174B30B5DC68C4F3D9
:10022C000224C4F10703251D042B28BF0423062D2B
:10023C004FF0010598BF002405FA03F303F1FF33D7
:10024C0088BF033C1940A14005FA04F4013C22404C
:10025C00002842EA01024FEA0212A9BF00F16040F5
:10026C00064BD2B200F56140BBBF00F00F00D2B21A
:10027C0080F800231A5430BD00ED00E014ED00E0CE
:10028C00002808DB0123420900F01F0003FA00F0EC
:10029C00014B43F82200704700E100E00138B0F157
:1002AC00807F0AD2F021064B064A586082F8231050
:1002BC000020072298601A6070470120704700BF29
:1002CC0010E000E000ED00E02DE9F74F0024264699
:1002DC00664BDFF8A8E1DFF8A8C10A6832FA06F528
:1002EC0002D103B0BDE8F08F4FF0010808FA06F810
:1002FC0002EA080290457FD14D68122D00F0AA80C9
:10030C0000F28380022D00F0A28077D8002D00F03F
:10031C008980012D00F099804FF00F09FF2A93BFBF
:10032C00824606F18045083DD0F800B092BFB5007A
:10033C00D0F804B0AD0009FA05F82BEA080804FA65
:10034C0005F588BF00F1040A48EA0505CAF8005013
:10035C00D1F804A01AF0805F4ED0454D444FAD69E2
:10036C0026F0030845F00105BD61BD6908F1804820
:10037C0005F00105019508F5803806F0030B019D89
:10038C004FEA8B0BD8F8085009FA0BF925EA090942
:10039C00384DA84263D005F58065A84261D005F5BB
:1003AC008065A8425FD005F58065A8420CBF032587
:1003BC00042505FA0BF545EA0905C8F808501D682F
:1003CC001AF4803F14BF154395431D605D681AF401
:1003DC00003F14BF154395435D609D681AF4801F60
:1003EC0014BF154395439D60DD681AF4001F14BFBC
:1003FC002A4325EA0202DA6001366EE7032D22D089
:10040C00112D89D1CC68043486E71B4FBD4209D02D
:10041C0012D8DFF870904D4504D009F580394D4560
:10042C007FF47AAF8C68C4B1012C0CBFC0F810807B
:10043C00C0F8148008246FE77545F3D06545F1D0FA
:10044C00DFF84490EBE7002466E7CC6864E7CC68FF
:10045C00083461E7CC680C345EE704245CE70025C3
:10046C00A7E70125A5E70225A3E700BF000401408B
:10047C000010024000080140000021100000311063
:10048C000000321000001110000022108368194285
:10049C0014BF0120002070470AB1016170470904A4
:1004AC00FBE7C3680B4214BF416101617047F0B5B3
:1004BC00044687B010B390F8293203F0FF021BB941
:1004CC0080F8282202F040FA254603236E4655F8A0
:1004DC00100B84F8293200F0BFFE0FCD0FC62B682D
:1004EC0025463360271D97E80E0055F8100B00F0D9
:1004FC00A3FE064620B1022384F82932012548E0E8
:10050C000146206800F0B2FE30464FF0010E6168E3
:10051C00C3B2994200F1010017D800221046D3B2A1
:10052C00994202F101021DD86E460FCD0FC62B6801
:10053C00336097E80E00206800F09AFE0123054610
:10054C0000B3022284F82922D8E704EB431282F884
:10055C0029E082F82830D38682F82B609663D66324
:10056C001664D5E704EB431686F828310A335B0191
:10057C0086F8290186F82B01C6F83801C6F83C012B
:10058C00E050CCE784F8240084F82932206801F08C
:10059C0055F9284607B0F0BD90F8283210B5012B5C
:1005AC0004460ED0012180F8281202F0F6FA2068D9
:1005BC0001F042F9206800F046FE002084F8280281
:1005CC0010BD022010BD90F8282210B5012A044657
:1005DC000BD0012280F8282284F82410006801F046
:1005EC0025F9002084F8280210BD022010BD70B53A
:1005FC0011F0800F044601F007004FEA40151FD0A0
:10060C00012605F128012544214485F829600A6159
:10061C004A78C0B20870CB7002B1C881022B04BFFB
:10062C0000230B7194F82832012B11D00123206880
:10063C0084F8283200F038FE002084F8280270BDBF
:10064C00002605F594712544214485F82961DEE7DF
:10065C00022070BD01F0070311F0800F10B54FEAB6
:10066C004312044615D002F1280101440244012032
:10067C0082F829000B7094F82832012B11D0012339
:10068C00206884F8283200F087FF002084F82802C4
:10069C0010BD02F5947101440244002082F8290136
:1006AC00E8E7022010BD70B5002601F007014D01EE
:1006BC00441984F8281105F594710144C4F83C21BF
:1006CC00C4F84031C4F8446184F82961006801F031
:1006DC00CDF8304670BD01F0070100EB4111D1F8A7
:1006EC004401704701F0070170B54D0144192364B2
:1006FC000026012384F8281005F128010144E26347
:10070C00666484F82930006801F0B0F8304670BD9A
:10071C002DE9F84F0446006801F092F8020400F14C
:10072C001082206801F08CF843050FD52268204612
:10073C00B2F8443023F480631B041B0CA2F8443041
:10074C0002F039F900212046FFF73DFF206801F047
:10075C0077F8470408D52268B2F8443023F4804374
:10076C001B041B0CA2F84430206801F069F88604C5
:10077C0008D52268B2F8443023F400531B041B0C38
:10078C00A2F84430206801F05BF8C5041CD522683F
:10079C002046B2F8403023F004031B041B0CA2F8D3
:1007AC004030B2F8403023F008031B041B0CA2F8B5
:1007BC00403002F023F92268B2F8443023F480531D
:1007CC001B041B0CA2F84430206801F039F800051A
:1007DC0026D52068B0F840309BB243F00803A0F84F
:1007EC004030B0F8443023F400631B041B0CA0F819
:1007FC004430B0F840309BB243F00403A0F84030D2
:10080C0001F01EF8C10408D52268B2F8443023F474
:10081C0080531B041B0CA2F84430204602F0DEF877
:10082C00206801F00DF882050BD522682046B2F83D
:10083C00443023F400731B041B0CA2F8443002F068
:10084C00B6F8206800F0FCFFC30508D52268B2F8A2
:10085C00443023F480731B041B0CA2F84430BDE815
:10086C00F88FB0F8441089B211F00F0640F0B78041
:10087C00038811F010019BB22CD103EA090343F455
:10088C0000430380B0F8503094F828209BB203EB5F
:10089C00C20300EB4300B0F80434E26BC3F309036A
:1008AC0063641344E363204602F07AF894F824302E
:1008BC0053B1226C42B994F82430216843F0800380
:1008CC00A1F84C3084F824202068B0F844301B0484
:1008DC00C7D426E713F4006521D0B0F8503094F853
:1008EC0028219BB203EBC20300EB4303B3F80C3497
:1008FC00B4F82E21C3F30903C4F8443104F50C7188
:10090C0001F09CF822682046138823F070031B0525
:10091C001B0D43F08003138002F034F8D4E71F045E
:10092C00D2D5038823F070031B051B0D43F0800305
:10093C000380B0F8503094F828219BB203EBC2032B
:10094C0000EB4303B3F80C34C3F30903C4F844318C
:10095C008BB1D4F83C1171B1B4F82E2101F06EF8C2
:10096C00D4F83C31D4F8442129461344C4F83C3122
:10097C00204602F00DF82168D4F83851B1F8503007
:10098C0001F20C409BB2CDB9C25A22F4F8421204C7
:10099C00120CC252C25A92B242F40042C2520B889A
:1009AC0023F4804323F070031B041B0C83F440538B
:1009BC0043F4004343F080030B8085E73E2D06D8BB
:1009CC006A08EE0748BF0132920292B2E6E76A0962
:1009DC00ED0608BF02F1FF324AEA8222F5E730F851
:1009EC0026801FFA88F818F4004F3DD030F82630D6
:1009FC00770123F070031B051B0D43F0800320F8D7
:100A0C002630E11991F83431002B58D1B0F8503020
:100A1C0091F828219BB2063303EBC20300EB43038E
:100A2C00B3F80054C5F3090535B1B1F82E212B46A6
:100A3C00D1F83C1101F002F8E119D1F84431D1F8A8
:100A4C003C212B44C1F84431D1F840312A44C1F83F
:100A5C003C211BB1D1F83801854269D2274497F863
:100A6C002811204601F094FF18F0800F3FF42CAFB2
:100A7C002168204631F8262092B202EA090242F49B
:100A8C00004221F82620B1F8503004EB461696F8B7
:100A9C0028209BB2023303EBC20301EB4303B3F8F0
:100AAC000024F36BC2F3090272641A44336CF263D0
:100ABC0096F82810002B41D101F072FF04E791F851
:100ACC00283130F82320DB0012F4804FB0F850208E
:100ADC0092B21FD00232134400EB4303B3F800541C
:100AEC00C5F3090535B12B46B1F83021D1F83C11CD
:100AFC0000F0A4FFE31993F82811226832F8213092
:100B0C009BB203EA0B0343F4004343F0C00322F807
:100B1C00213091E70632134400EB4303B3F8005441
:100B2C00C5F30905002DE5D02B46B1F83221DDE7E0
:100B3C0091F828112046FFF7B6FD95E7FFF7D2FD97
:100B4C00C2E6DFF80C90DFF80CA0DFF80CB0BBE6C7
:100B5C000F8FFFFF0080FFFF8F8FFFFF38B54368BB
:100B6C0001F007059D42044628D80B061DD501222D
:100B7C006B0103F128010344014483F8292001236C
:100B8C000D708B7094F828229A4219D084F8283270
:100B9C00206800F0E0FD25B904F50C71206800F028
:100BAC0053FE002084F8280238BD00224B0103F5C7
:100BBC0094710344014483F82921E0E7012038BDF6
:100BCC00022038BD38B5436801F00F029A42044642
:100BDC0026D801F0070311F0800F4FEA431217D00B
:100BEC0002F1280101440244012082F82900002569
:100BFC000B708D7094F82832012B13D001232068D0
:100C0C0084F8283200F0C7FD84F82852284638BDF5
:100C1C0002F5947101440244002082F82901E6E7B0
:100C2C00012038BD022038BD11F0800F1BBF01F030
:100C3C00070100EB411000EB4110283008BF00F514
:100C4C0094701AB90273C38000207047012203818B
:100C5C001B0C02734381F7E72DE9F341054608B9F4
:100C6C0001203CE00368DB0710D42B689F075DD4A0
:100C7C002B68190700F194802B685A0700F1BE808D
:100C8C00E869002840F02C81002028E08F4C636834
:100C9C0003F00C03042B07D0636803F00C03082B40
:100CAC0009D16368DE0306D523689C03DDD56B6828
:100CBC00002BDAD1D4E76B68B3F5803F12D12368EF
:100CCC0043F480332360FFF77DFA064623689803CC
:100CDC00CBD4FFF777FA801B6428F7D9032002B036
:100CEC00BDE8F0819BB9236823F48033236023682B
:100CFC0023F480232360FFF765FA064623689903E3
:100D0C00B3D5FFF75FFA801B6428F7D9E6E7B3F594
:100D1C00A02F236803D143F480232360CFE723F46F
:100D2C0080332360236823F48023CBE7674C63680C
:100D3C0013F00C0F07D0636803F00C03082B10D1D1
:100D4C006368DA030DD423689B0702D52B69012B4A
:100D5C0086D123686A6923F0F80343EAC20323604F
:100D6C0086E72A695A4B6AB101221A60FFF72AFA00
:100D7C00064623689F07ECD4FFF724FA801B022851
:100D8C00F7D9ABE71A60FFF71DFA064623689807F8
:100D9C007FF56EAFFFF716FA801B0228F6D99DE798
:100DAC00AA694A4C4B4BDAB101221A60FFF70AFAD6
:100DBC000646636A9B070DD54FF4FA52464B1B68E7
:100DCC00B3FBF2F3019300BF019B5A1E0192002B5F
:100DDC00F9D151E7FFF7F6F9801B0228E9D97DE735
:100DEC001A60FFF7EFF90646636A9F077FF544AF79
:100DFC00FFF7E8F9801B0228F6D96FE7334CE3695B
:100E0C00D80024D40127E36943F08053E361E369FC
:100E1C0003F080530093009B304E3368D90518D5EE
:100E2C00EB68012B26D1236A43F001032362FFF701
:100E3C00C9F941F288368046236A9B073FD5002FBB
:100E4C003FF41EAFE36923F08053E36118E70027FA
:100E5C00E2E7336843F480733360FFF7B3F98046FD
:100E6C003368DA05DCD4FFF7ADF9A0EB0800642891
:100E7C00F6D933E7ABB9236A41F2883823F0010382
:100E8C002362236A23F004032362FFF79BF90646CF
:100E9C00236A9807D3D5FFF795F9801B4045F7D9FE
:100EAC001CE7052B236A03D143F004032362BAE742
:100EBC0023F001032362236A23F00403B6E7FFF750
:100ECC0081F9A0EB0800B042B6D907E70010024048
:100EDC0000004242800442421C010020007000408D
:100EEC002A4B5A681C4602F00C02082A3DD00023FB
:100EFC00274E022833602BD1FFF764F9074623688D
:100F0C0099011FD42B6AB3F5803F05D16268A9689B
:100F1C0022F400320A436260696A62680B4322F46D
:100F2C0074121343636001233360FFF74BF90546DA
:100F3C0023689A013FF5A8AEFFF744F9401B02283D
:100F4C00F6D9CBE6FFF73EF9C01B0228D7D9C5E688
:100F5C00FFF738F9054623689B017FF595AEFFF73F
:100F6C0031F9401B0228F6D9B8E601283FF4B7AE98
:100F7C0058682B6A00F480329A427FF471AE6B6A27
:100F8C0000F47010C01A18BF0120A8E6001002402F
:100F9C006000424230B5194B87B002AC03F110052A
:100FAC00224618685968083303C2AB421446F7D17D
:100FBC0001238DF80430022311498DF805304B685C
:100FCC0003F00C02082A17D1C3F3834206A802448B
:100FDC00DB0312F8102C0CD54B680A48C3F34043C2
:100FEC00504306AA134413F8143CB0FBF3F007B0BB
:100FFC0030BD05485043FAE70248F8E7FC3B0008CF
:10100C000010024000127A0000093D002DE9F04169
:10101C000D46044610B90120BDE8F081454A13681D
:10102C0003F007038B4229D321688E0731D4CA07FA
:10103C0044D4404A136803F007039D4267D32268E7
:10104C003D4D12F0040F6ED1130706D56B68226963
:10105C0023F4605343EAC2036B60FFF79BFF6B689A
:10106C00364AC3F30313D35CD840354B1860354B69
:10107C001868FFF765F80020BDE8F081136823F0CD
:10108C0007030B431360136803F007039942C2D1A3
:10109C00CAE7294B11F0040F1EBF5A6842F4E062F4
:1010AC005A60080742BF5A6842F460525A605A6844
:1010BC00A06822F0F00202435A60B8E762681E4E44
:1010CC00012A33681BD113F4003FA4D0736841F29A
:1010DC00883823F0030313437360FFF773F8074654
:1010EC007368626803F00C03B3EB820FA1D0FFF7B7
:1010FC0069F8C01B4045F3D90320BDE8F081022AF2
:10110C0002D113F0007FE0E713F0020FDDE7136864
:10111C0023F007032B431360136803F007039D426E
:10112C007FF479AF8BE76B68E16823F4E0630B43E2
:10113C006B6089E700200240001002403F3C000831
:10114C001C0100200400002003682DE9F341D9079D
:10115C00054620D5354CE369DA0032D40127E36922
:10116C0043F08053E361E36903F080530193019BE7
:10117C002F4E3368DB0526D5236A13F4407336D122
:10118C00236A6A6823F44073134323621FB1E36933
:10119C0023F08053E3612868830706D5234AA968A6
:1011AC00536823F440430B43536010F010001BD0E2
:1011BC001E4AE9685368002023F480030B435360F4
:1011CC0012E00027D4E7336843F480733360FEF7F2
:1011DC00F9FF80463368D805CED4FEF7F3FFA0EBB9
:1011EC0008006428F6D9032002B0BDE8F0816A68D3
:1011FC0002F440729342C3D001200E4A236A10605D
:10120C00002023F4407110602162D907B8D5FEF795
:10121C00D9FF41F288380646236A9A07B0D4FEF704
:10122C00D1FF801B4045F7D9DDE700BF001002401D
:10123C00007000404004424284B001A880E80E00D7
:10124C0004B000207047B0F840309BB243F43F43E9
:10125C00A0F8403000207047B0F8403023F47C53A5
:10126C005B045B0CA0F840300020704700207047F6
:10127C0084B010B503AC84E80E00BDE81040002229
:10128C000123A0F84030A0F84020A0F84420A0F89A
:10129C005020B0F8403004B09BB243F43F43A0F868
:1012AC004030104670470000F0B50D78034630F81A
:1012BC002520C87822F4EC4222F070021204120CA1
:1012CC0003284ED8DFE800F0024A044742F40072CB
:1012DC00002048F28004224323F825200E78AB4DE1
:1012EC0033F82620344392B22A40224323F8262096
:1012FC000C7B0A78002C40F088804E78CC8896B312
:10130C00B3F8506003EB021224F00104B6B202F5FC
:10131C008062A4B294530C7833F82420560609D575
:10132C0033F8242092B22A4042F4004242F0C00228
:10133C0023F82420CA780978012A33F82120944C08
:10134C0092B202EA040201D082F0200242F400427E
:10135C0042F08002CBE042F4C062B9E742F4806212
:10136C00B6E70120B5E7B3F8505003EB021224F0B6
:10137C000104ADB202F58162A4B254530A78B3F8F9
:10138C0050600D6903EB0212B6B202F20C425DBB67
:10139C00945B24F4F8442404240C9453945B6FEA77
:1013AC0044446FEA5444A4B294530C7833F8242088
:1013BC0055040DD533F8242022F4E04222F07002BB
:1013CC001204120C42F4404242F0800223F8242012
:1013DC00097833F8212022F4804222F070021204A2
:1013EC00120C82F44052B1E73E2D05D86C08ED0783
:1013FC0048BF0134A402D6E76F09EC06654C08BF60
:10140C0007F1FF3744EA8724CDE733F82240A4B232
:10141C002C4044F4014444F0800423F822400A7820
:10142C000C89B3F8506003EB021224F00104B6B23D
:10143C0002F58062A4B294530A784C89B3F85060D8
:10144C0003EB021224F0010402F58162A4B2B6B2DD
:10145C0094534A780C78002A4CD133F82420520447
:10146C0009D533F8242092B22A4042F4404242F08B
:10147C00800223F824200C7833F8242057060DD54D
:10148C0033F8242022F4E04222F070021204120CF1
:10149C0042F4004242F0C00223F824200C7833F8C6
:1014AC00242022F4E04222F070021204120C42F4C6
:1014BC00004242F0C00223F8242048F280040D7848
:1014CC0033F8252022F4804222F070021204120C10
:1014DC0082F44052224323F82520097833F8212046
:1014EC0022F4E04222F040021204120C224323F8B0
:1014FC002120F0BD33F82420560409D533F82420DC
:10150C0092B22A4042F4404242F0800223F8242056
:10151C000C7833F8242052060DD533F8242022F40D
:10152C00E04222F070021204120C42F4004242F02B
:10153C00C00223F824200C78154D33F8242022F413
:10154C00E04222F070021204120C42F4404242F0CB
:10155C00800223F82420CA780C78012A33F824203E
:10156C0092B202EA050218BF82F0200242F4004255
:10157C0042F0800223F82420097833F8212022F449
:10158C00804222F070021204120CDFE68F8FFFFFF4
:10159C00BF8FFFFF0080FFFF10B50C7B4B780A78E4
:1015AC00002C3DD113B330F822305C060DD530F849
:1015BC00223023F4E04323F070031B041B0C43F490
:1015CC00004343F0C00320F822300A7830F8223070
:1015DC0023F4E04323F040031B041B0C43F40043AF
:1015EC0043F0800320F82230002010BD30F8223068
:1015FC005B040DD530F8223023F4E04323F0700364
:10160C001B041B0C43F4404343F0800320F82230AE
:10161C000A7830F8223023F4804323F07003DBE7A0
:10162C00002B4ED130F822305C040DD530F822302E
:10163C0023F4E04323F070031B041B0C43F44043DE
:10164C0043F0800320F822300A7830F822305B0611
:10165C000DD530F8223023F4E04323F070031B0443
:10166C001B0C43F4004343F0C00320F822300A78EB
:10167C0030F8223023F4E04323F070031B041B0CDE
:10168C0043F4004343F0C00320F8223048F28002B8
:10169C000C7830F8243023F4804323F070031B04BF
:1016AC001B0C134320F82430097830F8213023F434
:1016BC00E04323F040031B041B0C134320F82130A0
:1016CC0092E730F822305C040DD530F8223023F448
:1016DC00E04323F070031B041B0C43F4404343F022
:1016EC00800320F822300A7830F822305B060DD5C2
:1016FC0030F8223023F4E04323F070031B041B0C5E
:10170C0043F4004343F0C00320F822300A7830F849
:10171C00223023F4E04323F070031B041B0C43F42E
:10172C00404343F0800320F8223048F280020C78CA
:10173C0030F8243023F4E04323F040031B041B0C4B
:10174C00134320F82430097830F8213023F48043F7
:10175C0023F07003AFE74B780A788BB130F8223066
:10176C0023F4E04323F040031B041B0C83F0100311
:10177C0043F4004343F0800320F8223000207047EC
:10178C0030F8223023F4804323F070031B041B0C2D
:10179C0083F48053ECE70B7B43BB4B780A783BB369
:1017AC0030F822305B060DD530F8223023F4E043BC
:1017BC0023F070031B041B0C43F4004343F0C003E1
:1017CC0020F82230CB78012B10D00A7830F8223058
:1017DC0023F4E04323F040031B041B0C83F0200391
:1017EC0043F4004343F0800320F82230002070477C
:1017FC0030F822305B040DD530F8223023F4E0436E
:10180C0023F070031B041B0C43F4404343F0800390
:10181C0020F822300A7830F8223023F4804323F069
:10182C0070031B041B0C83F44053D9E711B98023BC
:10183C00A0F84C3000207047002070470020704703
:10184C00B0F8440080B270470020704700EB4202B1
:10185C00013302F580625B0802EB83039A4200D1EC
:10186C00704731F8020B22F8040BF7E770B50D4600
:10187C00497804460129AA692B69287B66D19A42CA
:10188C009DBF0023AB611346D21A88BFAA619EB2DA
:10189C0008BB3346EA8869692046FFF7D7FFB4F8DE
:1018AC0050302A7899B204F2044312010B44D652F8
:1018BC002A7834F8223023F4E04323F040031B044D
:1018CC001B0C83F0300343F4004343F0800324F8F3
:1018DC002230002070BD2B78204634F823201B01C9
:1018EC0012F0400FB4F8502091B215BF04F20C4224
:1018FC0004F204425218521815BFD652D6526A89B5
:10190C002A8933466969FFF7A1FF6B782A7873B986
:10191C0034F8223023F4E04323F070031B041B0C37
:10192C0043F4004343F0C00324F82230C0E7012BFA
:10193C00BED134F8223023F4E04323F070031B04AF
:10194C001B0C43F4404343F08003EDE79A4293BFF2
:10195C000023D21AAA61AB6198BF13462A78B0B99A
:10196C00B4F85000120181B204F20C400844002B70
:10197C0044D1835A23F4F8431B041B0C8352835A1F
:10198C006FEA43436FEA53439BB283523FE0A1B9E2
:10199C00B4F85000120181B204F204400844E3B9D7
:1019AC00815A21F4F8410904090C8152815A6FEAD9
:1019BC0041416FEA514189B2815269782A780029F4
:1019CC00CED0012923D1B4F85010120188B204F200
:1019DC000C4101449BB28B5219E03E2B05D859089F
:1019EC00DE0748BF01318902E5E75E09D9061249D5
:1019FC0008BF06F1FF3641EA8621DCE73E2B12D800
:101A0C005908DE0748BF0131890289B281522A7810
:101A1C0034F8223023F4804323F070031B041B0C96
:101A2C0083F440534FE75909DB06034B08BF01F120
:101A3C00FF3143EA8123A7E70080FFFF00EB42025E
:101A4C00F0B502F580625D08084617462E46023056
:101A5C0036B9DB0744BF32F8253001F81530F0BD3C
:101A6C0037F8044B013EA4B200F8024C240A00F8EB
:101A7C00014CECE7D0F8BC3210B5D0F8B8425BB1F1
:101A8C0094F80002FF2807D09B6894F801222146A5
:101A9C009847FF2384F80032002010BD43230380B5
:101AAC0000487047400000204323038000487047E3
:101ABC00840000204323038000487047D40000209A
:101ACC000A23038000487047C800002038B505463B
:101ADC00D0F8B84201F058F8D5F8B832C4F80C0276
:101AEC004BB1D5F8BC3204F50371DB68D4F80402B1
:101AFC009847002038BD022038BDF8B5D0F8B86240
:101B0C00CEB1142303FB0103DA6982B1D0F8C042D1
:101B1C0004EB4114A56BB2FBF5F405FB142434B9AA
:101B2C00DC612246234601F013F82046F8BD002064
:101B3C00C6F81402F8BD0220F8BD2DE9F7434FF0AA
:101B4C0000080A78054612F060040E46D0F8B87208
:101B5C008DF80580ADF8068028D0202C47D1CC8894
:101B6C004B78E4B1120611D5D0F8BC223946D2F824
:101B7C00089018462246C847F2883946284600F095
:101B8C004CFC4446204603B0BDE8F08387F8003295
:101B9C0087F801422246394600F054FCF1E7D0F8B0
:101BAC00BC22184695682246A847EBE74F780A2FC7
:101BBC000DD00B2F15D0D7B990F89C32032B14D124
:101BCC0002220DF1060100F028FC3C46DAE790F801
:101BDC009C32032B09D101220DF1050100F01DFCF3
:101BEC00D0E790F89C32032BCCD03146284600F03D
:101BFC00EDFB0224C6E738B504460025812100F030
:101C0C005FFF0121E562204600F05AFFC4F86C51D9
:101C1C008221204600F054FFD4F8B83225644BB131
:101C2C00D4F8BC325B689847D4F8B80200F0B4FF23
:101C3C00C4F8B852002038BD037C2DE9F0410446AD
:101C4C00CBBB4FF4007302228121012500F028FF49
:101C5C004FF40073E56229460222204600F020FF73
:101C6C00C4F86C510125082303228221204600F080
:101C7C0017FF25644FF4077000F08AFF0646C4F87E
:101C8C00B80258B30027D4F8BC321B68984794F8B4
:101C9C001080C6F81472C6F81872B8F1000F13D180
:101CAC004FF40073D6F804222946204600F05EFF5C
:101CBC004046BDE8F081012540230222812100F03D
:101CCC00EFFEE5624023C6E74023D6F804222946FE
:101CDC00204600F04BFF3846BDE8F0812846BDE8B1
:101CEC00F08119B1C0F8BC12002070470220704777
:101CFC00D0F8B8320020C3F80812C3F8102270478D
:101D0C00D0F8B8320020C3F804127047D0F8B822CB
:101D1C0010B562B1047C44B94FF40073D2F80422BC
:101D2C00012100F023FF002010BD4023F6E7022024
:101D3C0010BD000008B550B90D4800F0FFFF0D486C
:101D4C0000F0FCFF0A2001F011F8022008BDD0F8C9
:101D5C00B43213B10023C0F8B43209B1C0F8B012D8
:101D6C000123027080F89C3200F04CFE002008BD6C
:101D7C000C3C0008143C000808B519B1C0F8B412AA
:101D8C00002008BD054800F0D9FF054800F0D6FF3B
:101D9C000A2000F0EBFF022008BD00BF0C3C00083D
:101DAC002A3C000808B500F06DFE002008BD08B5FF
:101DBC00D0F8B4320BB9022008BD1B689847002834
:101DCC00F9D108BD08B5D0F8B4325B68984700204B
:101DDC0008BD38B500F52A750446284600F0E2FA2D
:101DEC00012394F8A812C4F89432B4F8AE32C4F8B3
:101DFC00983201F01F03012B0ED007D3022B10D009
:101E0C0001F08001204600F069FE03E029462046DF
:101E1C0000F0F6F8002038BD2946204600F014FAF0
:101E2C00F8E72946204600F034FAF3E770B505468A
:101E3C00164649BBD0F89432032B1ED1D0F8603132
:101E4C00D0F8642193420BD99B1A9A42C0F86031A6
:101E5C008CBF9AB292B2314600F003FB002070BDE9
:101E6C00D0F8B4321B6923B190F89C22032A00D11C
:101E7C009847284600F0FDFAF0E7052BEED1C5F89F
:101E8C00941200F02BFEE9E7D0F8B4329B692BB129
:101E9C0090F89C22032A01D19847DFE7022070BDFD
:101EAC0070B5134604460E46002947D1D0F894224B
:101EBC00022A3CD1056A426A954213D9AA1A0262D7
:101ECC00194692B200F0B6FA33461A461946204625
:101EDC0000F04CFE94F8A0320020012B3AD184F88B
:101EEC00A00270BDC369B3FBF2F502FB153565B9F1
:101EFC009A420AD8D0F89822934206D22A4600F089
:101F0C0099FAC4F898522B46DFE7D4F8B432DB6860
:101F1C002BB194F89C22032A01D1204698478021AA
:101F2C00204600F0DBFD204600F0AEFAD2E732F09E
:101F3C000403CFD1802100F0D1FDCBE7D0F8B4322F
:101F4C005B6933B190F89C22032A02D19847002098
:101F5C0070BD022070BD002270B5044601254026DC
:101F6C001146402300F09CFD33468021C4F85851A3
:101F7C00C4F864610022204600F092FD0021D4F8E0
:101F8C00B832A561666284F89C52C4F89412616000
:101F9C00C4F8A41223B1D4F8B43220465B68984735
:101FAC00002070BD01740020704790F89C3280F8BE
:101FBC009D32042380F89C320020704790F89C32AC
:101FCC00042B04BF90F89D3280F89C32002070479F
:101FDC0008B590F89C22032A04D1D0F8B432DB69FE
:101FEC0003B19847002008BD10B50446802100F0CD
:101FFC0075FD2046BDE81040002100F06FBD0000CB
:10200C0037B50B78044603F06003202B0D4612D035
:10201C00402B10D0002B5CD14B78092B58D8DFE823
:10202C0013F0E90005015700FE005700840013006F
:10203C005700D200A000D4F8B43229469B68204641
:10204C009847002003B030BD0023ADF806304B8814
:10205C001A0A013A062A3BD8DFE802F004202D3A8E
:10206C003A525C00D0F8B0321B680DF10601207CAE
:10207C009847BDF8062052B1EB8843B19A4228BF6D
:10208C001A4601462046ADF8062000F0C6F9EB884A
:10209C00002BD6D1204600F0ECF9D2E7027CD0F828
:1020AC00B43232B99B6A0DF1060098470223437093
:1020BC00DFE7DB6AF7E7DBB2052B09D8DFE803F0D3
:1020CC00030C1014181CD0F8B0325B68002BCCD168
:1020DC002046FFF789FFB4E7D0F8B0329B68F5E7EC
:1020EC00D0F8B032DB68F1E7D0F8B0321B69EDE71D
:1020FC00D0F8B0325B69E9E7D0F8B0329B69E5E71C
:10210C00037C002BE4D1D0F8B4320DF106005B6BEC
:10211C009847AEE7037C002BDAD1D0F8B4320DF13E
:10212C0006001B6B98470723C1E78B88002BCFD188
:10213C00CB88002BCCD14D887F2DC9D890F89C3200
:10214C00E9B2032BC4D080F89E1200F0F3FC2046B9
:10215C0000F08FF91DB1022384F89C3271E7012342
:10216C00FAE78978374D01292970B1D890F89C325B
:10217C00022B08D0032B14D0FFF736FF297820460A
:10218C00FFF720FE5DE7002984D001210323416085
:10219C0080F89C322046FFF70AFE02287FF47AAFC3
:1021AC0096E731B90223416080F89C32FFF70AFEB2
:1021BC0070E7416801293FF46DAFC9B2FFF702FE29
:1021CC0029786160E6E7CA88012A81D190F89C32AF
:1021DC00002B3FF47DAF022B04D9032B7FF478AF97
:1021EC00011D03E00146002341F8083F204600F0A2
:1021FC0014F926E790F89C32013B022B3FF668AFAE
:10220C00CB88022B7FF464AF0123C360D0F8A432D7
:10221C000BB10323C360022204F10C01E6E74B88E7
:10222C00012B7FF40EAFC4F8A43233E790F89C3244
:10223C00013B022B3FF64CAF4B88012B7FF401AFD7
:10224C000023F0E70002002038B50B78044603F0B9
:10225C006003202B0D4602D0402B00D0B3B994F86C
:10226C009C32013B022B10D82B79012B0DD8D4F8C2
:10227C00B43229469B6820469847EB881BB910B9A5
:10228C00204600F0F6F8002038BD2046FFF7ACFEE3
:10229C00F9E738B50A78044602F06002202A0B46AA
:1022AC0013D0402A11D06AB95D788A88012DD1B239
:1022BC001FD035D3032D05D190F89C22022A26D0AD
:1022CC00032A0AD0FFF790FE05E0D4F8B422194691
:1022DC00926820469047002038BD5A882AB94A0691
:1022EC0003D0DB880BB900F0F9FB204600F0C1F8F5
:1022FC00F1E790F89C22022A09D0032AE2D15B88EC
:10230C00002BE8D14D06F0D000F0F6FBEDE74B06C4
:10231C0016D000F0E3FB8021204600F0DFFBDAE76B
:10232C0090F89C32022B0DD0032BCBD1142312F03E
:10233C00800F01F00F0203FB020214D09269EAB97C
:10234C002046BFE74906FBD113064FF000034FF0C0
:10235C0002024CBF00F1140100F5AA710B6020467B
:10236C0000F05BF8B7E7D2F85821002AE8D001F06A
:10237C007F0503FB050505F5AA7504E001F07F0553
:10238C0005FB0335054411F07F0303D12B600222BA
:10239C002946E4E7204600F0BDFB08B10123F5E730
:1023AC002860F4E70B7803704B784370CA788B780D
:1023BC0003EB022343804A790B7903EB02238380DE
:1023CC00CA798B7903EB0223C380704710B504469E
:1023DC00802100F083FB2046BDE81040002100F076
:1023EC007DBB30B588B105462B1A15F8014BDBB215
:1023FC00002CF9D101335B0013800B7003234B705D
:10240C000223013810F8015F05B930BD5A1CCD54B8
:10241C00D2B20233DBB28C54F4E71346022210B56D
:10242C00C0F89422C3610A460362002100F090FBBD
:10243C00002010BD08B513460A46002100F088FBA9
:10244C00002008BD1346032210B5C0F89422C0F832
:10245C005C310A46C0F86031002100F087FB002097
:10246C0010BD08B513460A46002100F07FFB002082
:10247C0008BD08B50423C0F8943200231A46194647
:10248C0000F066FB002008BD08B50523C0F89432A7
:10249C0000231A46194600F069FB002008BD000015
:1024AC0038B54FF400611548FDF7F0FF4FF480513B
:1024BC00C5431248FDF7EAFF10F0010F14BF0020CE
:1024CC00022005F0010505430520FDF781FE4FF4C0
:1024DC0000610A48FDF7DAFF4FF48051C443074806
:1024EC00FDF7D4FF10F0010F14BF0020022004F000
:1024FC0001046C40604025EA000038BD001001402A
:10250C0010B5314B00B118601B68304C012B2FD02B
:10251C00022B44D0227810212D48FDF7BDFF2279E3
:10252C004FF480512A48FDF7B7FF227A4FF48041CF
:10253C002748FDF7B1FF227B4FF400412448FDF7FB
:10254C00ABFF227C4FF400512148FDF7A5FF227D03
:10255C0020211F48FDF7A0FF227E40211C48FDF7DB
:10256C009BFF227F8021BDE810401948FDF794BFE6
:10257C0048B100231A4644F823200133082BFAD122
:10258C0001232360C6E72346226804F11C0153F89B
:10259C00040F994243F8040CF9D1E261BAE740B157
:1025AC000023012244F823200133082BFAD1002305
:1025BC00E7E72346226804F11C0153F8040F8B4211
:1025CC0043F8040CF9D1E8E71801002004020020BC
:1025DC00000C0140282270B594B00DEB02000021D4
:1025EC0000F0A4FB142210250DEB0200002100F0DA
:1025FC009DFB2A46002101A800F098FB4FF4803384
:10260C0001240B93022612934FF480130AA8139300
:10261C000A940E941196FEF71FFB0F234FF4806261
:10262C0005930023214605A8079308920993069663
:10263C00FEF7ECFC4FF4800301A801950493FEF720
:10264C0083FD14B070BD000000B589B0FDF79CFD92
:10265C00FFF7C0FF102200210DEB020000F066FB1B
:10266C00404B4FF2F0019A693F4842F020029A61C8
:10267C009A69002402F020020092009A9A690125BE
:10268C0042F008029A619A69022602F0080201924D
:10269C00019A9A6942F010029A619A6902F010024A
:1026AC000292029A9A6942F004029A619B69002292
:1026BC0003F004030393039BFDF7EEFE00224FF49B
:1026CC0000412A48FDF7E8FE4FF2F00304A9264822
:1026DC000493069405950796FDF7F6FD4FF4FE530B
:1026EC0004A92348049305940694FDF7EDFD4FF4DB
:1026FC00004304A91D480493069405950796FDF71D
:10270C00E3FD082304A91848049305940694FDF7E7
:10271C00DBFD00F0CBF82846FFF7F2FE4FF47A70A1
:10272C00FDF756FD04F1804404F584344FF4004168
:10273C002046FDF7B6FE4FF47A70FDF749FD0020F8
:10274C00FFF7DEFEFFF7ACFEC20702D50220FFF753
:10275C00D7FEFFF7A5FE8307E8D50120FFF7D0FED3
:10276C00E4E700BF00100240000C014000080140EB
:10277C0000100140704700000E4B82B09A6942F085
:10278C0001029A619A6902F001020092009ADA69D8
:10279C0042F08052DA61DB69074A03F080530193FF
:1027AC00019B536823F0E06343F08063536002B0F5
:1027BC00704700BF00100240000001407047FEE768
:1027CC00FEE7FEE7FEE7704770477047FDF7EEBC8B
:1027DC000148FDF79DBF00BFE80E002070B50E4606
:1027EC0015460C46A31B9D4201DC284670BDAFF379
:1027FC00008004F8010BF5E770B50E4615460C4643
:10280C00A31B9D4201DC284670BD14F8010BAFF3ED
:10281C000080F5E708B50A4B0246196809B9094961
:10282C0019606946186802448A4206D900F054FAC5
:10283C000C2303604FF0FF3008BD1A6008BD00BFC9
:10284C0024020020581300204FF0FF3070474FF443
:10285C00005300204B6070470120704700207047E8
:10286C000F4B1A6842F001021A6059680D4A0A406F
:10287C005A601A6822F0847222F480321A601A6844
:10288C0022F480221A605A6822F4FE025A604FF435
:10289C001F029A604FF00062034B9A60704700BFB2
:1028AC00001002400000FFF800ED00E008B5002227
:1028BC000E490F48FFF73EFA08B1FFF75BFF0D49D1
:1028CC000B48FFF759FA08B1FFF754FF0A490848BB
:1028DC00FFF707FA08B1FFF74DFF0548FFF762FA5B
:1028EC0018B1BDE80840FFF745BF08BD3001002016
:1028FC005404002008000020200100200020704714
:10290C000020704710B5054C01462046FFF7F8F93A
:10291C002046FFF7FBF9002010BD00BF5404002037
:10292C0010B5064C002206492046FFF7E1F905498F
:10293C002046FFF7E5F9002010BD00BF540400202D
:10294C00000B00201807002007B50D4B02689A42B7
:10295C0012D103F5DA33DA69142042F40002DA6199
:10296C000022DB69114603F400030193019BFDF780
:10297C0053FC1420FDF784FC03B05DF804FB00BF8E
:10298C00005C004000F50C71D0F86802FFF721BA2A
:10299C0000EB4113D3F83C21D0F86802FFF746BA9C
:1029AC0000EB4113DA6BD0F86802FFF779BAD0F874
:1029BC006802FFF70DBB836810B5022B044601D0EB
:1029CC00FFF7D8FED4F868020121FFF7EBFAD4F830
:1029DC006802BDE81040FFF7BEBA000010B504460F
:1029EC00D0F86802FFF7E1FAA36923B1024A136930
:1029FC0043F00603136110BD00ED00E0D0F868024F
:102A0C00FFF7DCBA0223082210B51C4904461C4807
:102A1C0080E80E000023C4F8C002C0F8684283614D
:102A2C00C3610362FDF743FD08B1FFF7A3FE00226B
:102A3C0018231146D4F8C002FEF7F6F858230022EA
:102A4C008021D4F8C002FEF7EFF8C02300228121C8
:102A5C00D4F8C002FEF7E8F84FF488730022012185
:102A6C00D4F8C002FEF7E0F84FF480730022822104
:102A7C00D4F8C002FEF7D8F8002010BD005C00406E
:102A8C00E80E002008B5D0F8C002FDF785FD03283C
:102A9C009ABF024B185C022008BD00BF4F3C0008D7
:102AAC0010B51C46D0F8C00213462246FDF79FFD18
:102ABC0003289ABF014B185C022010BD4F3C000844
:102ACC0008B5D0F8C002FDF7C5FD03289ABF024B2C
:102ADC00185C022008BD00BF4F3C000808B5D0F8B8
:102AEC00C002FEF73BF803289ABF024B185C022089
:102AFC0008BD00BF4F3C000808B5D0F8C002FEF777
:102B0C0061F803289ABF024B185C022008BD00BF75
:102B1C004F3C00080A06D0F8C03245BF01F07F01D7
:102B2C0003EB411303EB411393F82A0058BF93F8BE
:102B3C002A01704708B5D0F8C002FDF744FD032800
:102B4C009ABF024B185C022008BD00BF4F3C000826
:102B5C0008B5D0F8C002FDF7C5FD03289ABF024B9B
:102B6C00185C022008BD00BF4F3C000808B5D0F827
:102B7C00C002FDF798FD03289ABF024B185C022097
:102B8C0008BD00BF4F3C0008D0F8C002FDF7A3BD44
:102B9C0000487047280200207047704712230148F4
:102BAC000B8070474C010020042301480B807047B8
:102BBC0060010020002330B51D46DCB2A24200D8D3
:102BCC0030BD040F092C94BF3034373401F8134056
:102BDC0001EB4304000165700133EEE71A2310B5D5
:102BEC000B80094B186808331B68C0180AD0074BB8
:102BFC0008221C680649FFF7DDFF04220549204620
:102C0C00FFF7D8FF044810BDE8F7FF1FECF7FF1FD4
:102C1C0066010020760100206401002010B5044CF0
:102C2C000A4604482146FFF7DCFB204610BD00BFD6
:102C3C00541100206C3C000810B5044C0A460448A2
:102C4C002146FFF7CEFB204610BD00BF54110020DB
:102C5C007F3C000810B5044C0A4604482146FFF797
:102C6C00C0FB204610BD00BF54110020533C00088F
:102C7C0010B5044C0A4604482146FFF7B2FB204627
:102C8C0010BD00BF541100205E3C0008002103E081
:102C9C000B4B5B58435004310A480B4B42189A4279
:102CAC00F6D30A4A02E0002342F8043B084B9A424E
:102CBC00F9D3FFF7D5FD00F015F8FFF7C5FC704709
:102CCC00383D000800000020E4010020E401002051
:102CDC0058130020FEE70000014B1868704700BF36
:102CEC008001002070B500250C4E0D4CA41BA410C7
:102CFC00A54209D100F070FF00250A4E0A4CA41B16
:102D0C00A410A54205D170BD56F825309847013561
:102D1C00EEE756F8253098470135F2E7303D0008CC
:102D2C00303D0008303D0008343D000803460244A5
:102D3C00934200D1704703F8011BF9E70FB40A4B1B
:102D4C0013B51C6824B1A36913B9204600F062F8CE
:102D5C0005AB049AA1682046019300F06BF902B010
:102D6C00BDE8104004B070478001002038B5084B16
:102D7C0005461C6824B1A36913B9204600F04AF833
:102D8C00A26829462046BDE8384000F001BC00BFCF
:102D9C0080010020014900F0A9B800BF8539000866
:102DAC00002310B504460360436083608181436651
:102DBC00C281036143618361194608225C30FFF7CD
:102DCC00B5FF054B24626362044BA362044BE362C0
:102DDC00044B236310BD00BF293600084B36000896
:102DEC0083360008A736000870B568254A1E55437F
:102DFC000E4605F1740100F097F8044640B100212D
:102E0C0080E842000C30A06005F16802FFF78EFFED
:102E1C00204670BD836910B5044633BB8364C3641C
:102E2C000365124B124A1B688262984204BF01234D
:102E3C00836100F01FF86060204600F01BF8A06072
:102E4C00204600F017F80022E06004216068FFF7CC
:102E5C00A7FF01220921A068FFF7A2FF022212217D
:102E6C00E068FFF79DFF0123A36110BD983C0008AB
:102E7C00A12D0008F8B51C4B07461E68B36913B9A1
:102E8C003046FFF7C7FF4836B4687368013B03D57B
:102E9C00336833B13668F7E7B4F90C506DB1683468
:102EAC00F4E704213846FFF79FFF30600028F1D18A
:102EBC000C2304463B602046F8BD4FF6FF73E381BC
:102ECC0001236566A3812560A56065602561656148
:102EDC00A5610822294604F15C00FFF727FF656312
:102EEC00A563A564E564E6E7983C00082DE9F84382
:102EFC0080468946002600F1480414B93046BDE8E6
:102F0C00F883A5686768013F01D52468F5E7AB89AC
:102F1C00012B07D9B5F90E30013303D029464046B1
:102F2C00C84706436835EEE770B5CD1C25F00305A0
:102F3C0008350C2D38BF0C25002D064601DBA942A7
:102F4C0003D90C233360002070BD00F0C3FD234A6D
:102F5C001468214691B9224C23681BB9304600F005
:102F6C004DFB20602946304600F048FB431C26D11F
:102F7C000C233046336000F0AEFDE4E70B685B1BBE
:102F8C001AD40B2B0FD90B60CC18CD50304600F057
:102F9C00A2FD04F10B00231D20F00700C31A1BD067
:102FAC005A42E25070BD8C420BBF63684B68136091
:102FBC00636018BF0C46E9E70C464968CAE7C41CB5
:102FCC0024F00304A04205D0211A304600F016FB71
:102FDC000130CDD02560D9E770BD00BF480400207A
:102FEC004C040020936810B4013B002B936008DA6A
:102FFC009469A34202DBCBB20A2B02D110BC00F0C5
:10300C0051BB1368581C10601970C8B210BC7047C3
:10301C00F8B506460F461446D518AC4201D100202F
:10302C0007E03A4614F8011B3046FFF7DBFF431C60
:10303C00F3D1F8BD2DE9F04F9DB00C461746039324
:10304C00064618B183690BB9FFF7E4FE7C4B9C4232
:10305C0057D17468A38918075DD52369002B5AD002
:10306C000023099320238DF8293030234FF0010BD6
:10307C008DF82A30B846454615F8013B002B55D142
:10308C00B8EB070A0BD053463A4621463046FFF7B9
:10309C00BFFF013000F0C480099B5344099398F89A
:1030AC000030002B00F0BC8000234FF0FF32049363
:1030BC000793059206938DF853301A9305222978BD
:1030CC00604800F0F9FC05F10108049B002831D19F
:1030DC00D90644BF20228DF853201A0744BF2B2257
:1030EC008DF853202A782A2A2CD000210A20079AFE
:1030FC00A84698F800300135303B092B6DD971B3D7
:10310C0026E0514B9C4201D1B468A3E74F4B9C4243
:10311C0008BFF4689EE72146304600F027FB0028E4
:10312C009ED04FF0FF301DB0BDE8F08F252BA7D0FF
:10313C00A846A0E7434A4546801A0BFA00F018430C
:10314C000490BBE7039A111D12680391002A01DB5E
:10315C00079204E0524243F002030792049398F85A
:10316C0000302E2B10D198F8013008F101012A2BD8
:10317C0037D1039B08F102081A1D1B680392002B20
:10318C00B8BF4FF0FF330593314D032298F8001070
:10319C00284600F091FC40B14023401B03FA00F09C
:1031AC00049B08F101080343049398F800100622CD
:1031BC00284808F101078DF8281000F07DFC002844
:1031CC0034D0254B03BB039B073323F00703083391
:1031DC000393099B4B4409934CE700FB02320121FA
:1031EC0086E700230A2518460593884698F80020A0
:1031FC000131303A092A03D9002BC5D00590C3E719
:10320C0005FB00200123F0E703AB00932246134B90
:10321C0004A93046AFF30080B0F1FF3F8146D8D10E
:10322C00A3895B063FF57DAF09987CE703AB009360
:10323C0022460A4B04A9304600F08AF8ECE700BF9E
:10324C00BC3C0008FC3C0008DC3C00089C3C000832
:10325C00023D0008063D0008000000001D3000087B
:10326C002DE9F04791461F468A680B690646934242
:10327C00B8BF1346C9F8003091F843200C46DDF86E
:10328C00208012B10133C9F800302368990642BF7F
:10329C00D9F800300233C9F80030256815F006055E
:1032AC0007D104F1190AE368D9F800209B1A9D4252
:1032BC002ADB94F843302268003318BF01239206AE
:1032CC002FD404F1430239463046C047013022D096
:1032DC002368E56803F00603042B18BF0025D9F812
:1032EC0000204FF0000908BFAD1AA368226908BF7F
:1032FC0025EAE5759342C4BF9B1AED181A344D4567
:10330C001BD10020BDE8F0870123524639463046D8
:10331C00C047013003D14FF0FF30BDE8F0870135D5
:10332C00C1E73020E11881F843005A1C94F845108D
:10333C002244023382F84310C3E701232246394664
:10334C003046C0470130E6D009F10109D7E700004B
:10335C002DE9F04317460A7E85B06E2A984606463C
:10336C000C460C9B01F1430E00F0BC801AD8632A6A
:10337C002ED00AD8002A00F0C880582A00F08A8083
:10338C0004F1420584F842202AE0642A01D0692A1B
:10339C00F6D121681A6811F0800F23D0111D196025
:1033AC00136827E0732A00F0B48008D86F2A2AD05B
:1033BC00702AE5D10A6842F020020A6003E0752AFF
:1033CC0021D0782ADCD178226F4984F8452064E03A
:1033DC001A6801F14205111D1960136884F8423016
:1033EC000123A3E011F0400F02F104011960D7D0C2
:1033FC00B2F90030002B03DA2D225B4284F8432013
:10340C0062490A2217E02068196810F0800F03D077
:10341C00081D18600B6806E010F0400F01F1040065
:10342C001860F7D00B886F2A14BF0A22082257495C
:10343C00002084F843006568002DA560C0F29C80D4
:10344C00206820F004002060002B3FD1002D40F0BC
:10345C0095807546082A0BD12368DA0708D52369AD
:10346C0062689A42DEBF302305F8013C05F1FF3556
:10347C00AEEB05032361CDF800803B4603AA214641
:10348C003046FFF7EDFE013055D14FF0FF3005B05F
:10349C00BDE8F08381F845203C492268186812F099
:1034AC00800F00F104051D6001D0036802E0550691
:1034BC00FBD50388D00744BF42F0200222601BB921
:1034CC00226822F0200222601022B1E77546B3FB7D
:1034DC00F2F002FB1033CB5C05F8013D03460028EB
:1034EC00F5D1B7E708681A6810F0800F496904D065
:1034FC00101D18601368196007E010F0400F02F1FE
:10350C00040018601368F6D01980002375462361F7
:10351C00B1E71A68111D1960156800216268284608
:10352C0000F0CAFA08B1401B606063682361002395
:10353C0084F843309FE723692A4639463046C04712
:10354C000130A2D023689B0707D5002504F1190987
:10355C00E368039A9B1A9D4205DBE068039B984243
:10356C00B8BF184693E701234A4639463046C04750
:10357C0001308AD00135EBE7002BA7D10B7804F191
:10358C00420584F8423065E71E3D00080D3D0008F9
:10359C0070B50D461446064618B183690BB9FFF792
:1035AC0039FC134B9C4212D17468A368013B002B6D
:1035BC00A36016DAA269934202DBEBB20A2B10D19C
:1035CC00224629463046BDE8704000F06BB8094BE6
:1035DC009C4201D1B468E8E7074B9C4208BFF468F1
:1035EC00E3E72368E8B25A1C22601D7070BD00BF6F
:1035FC00BC3C0008DC3C00089C3C000838B50023AF
:10360C00054C054608462360FFF704F9431C02D11C
:10361C00236803B12B6038BD5413002010B50C4641
:10362C00B1F90E1000F0A4FA0028ABBF636DA389AA
:10363C001B1823F48053ACBF6365A38110BD2DE927
:10364C00F0411F468B890546DB050C46164605D511
:10365C0002230022B1F90E1000F0B8F9A38932460A
:10366C0023F48053A381B4F90E103B462846BDE8E1
:10367C00F04100F069B810B50C46B1F90E1000F02D
:10368C00A5F9431CA38915BF606523F4805343F44B
:10369C008053A38118BFA38110BDB1F90E1000F0A7
:1036AC00D3B80000F8B50E461446054618B1836928
:1036BC000BB9FFF7AFFB214B9C422AD16C68A36975
:1036CC00A360A3891A072ED5236963B323692068E5
:1036DC00F6B2C01A63693746984204DB2146284685
:1036EC0000F04AF928BBA3680130013BA3602368B2
:1036FC005A1C22601E706369984204D0A389DB07B0
:10370C0019D50A2E17D12146284600F035F990B16B
:10371C000FE00B4B9C4201D1AC68D0E7094B9C42AB
:10372C0008BFEC68CBE72146284600F01FF80028BC
:10373C00CCD04FF0FF373846F8BD00BFBC3C00087A
:10374C00DC3C00089C3C000838B505460846114690
:10375C000022054C22601A46FFF74EF8431C02D19A
:10376C00236803B12B6038BD54130020324B70B565
:10377C001D6806460C4625B1AB6913B92846FFF700
:10378C0049FB2E4B9C420FD16C68B4F90C309AB2A9
:10379C0015072CD4D00611D40922326043F0400313
:1037AC00A3814FF0FF3070BD254B9C4201D1AC681A
:1037BC00EBE7244B9C4208BFEC68E6E7510712D5B7
:1037CC00616B41B104F14403994202D0304600F0E0
:1037DC0083F900236363A38923F02403A3810023CB
:1037EC00636023692360A38943F00803A3812369E1
:1037FC004BB9A38903F42073B3F5007F03D02146A2
:10380C00304600F019F9A28912F001030CD0002304
:10381C00A36063695B42A361236953B9B4F90C30AB
:10382C0013F08000BAD170BD920758BF6369A360D2
:10383C00F2E70020F7E700BF80010020BC3C000845
:10384C00DC3C00089C3C000838B50023054C0546C0
:10385C0008462360FEF7F8FF431C02D1236803B12E
:10386C002B6038BD541300208A892DE9F0410546A0
:10387C0010070C465AD44B68002B05DC0B6C002B44
:10388C0002DC0020BDE8F081E66A002EF9D00023AE
:10389C0012F480522F682B6033D0606DA3895A07C5
:1038AC0005D56368C01A636B0BB1236CC01A002377
:1038BC000246E66A216A2846B047431CA38906D112
:1038CC0029681D294BD82B4ACA40D60747D5002258
:1038DC0062602269D904226004D5421C01D12B6894
:1038EC0003B96065616B2F600029CAD004F14403F1
:1038FC00994202D0284600F0EFF800206063BDE842
:10390C00F081216A01232846B047411CC6D12B689F
:10391C00002BC3D01D2B01D0162B01D12F60B0E78B
:10392C00A38943F04003A381BDE8F0810F69002F08
:10393C00A7D0930718BF00230E6808BF4B69A6EBEE
:10394C0007080F608B60B8F1000F9ADD43463A46CA
:10395C00216A2846A66AB047002807DCA38943F0F1
:10396C004003A3814FF0FF30BDE8F0810744A8EB82
:10397C000008E8E70100402038B50B6905460C4605
:10398C00DBB118B183690BB9FFF744FA0C4B9C42BD
:10399C0009D16C68B4F90C307BB121462846BDE8DE
:1039AC003840FFF761BF074B9C4201D1AC68F1E78F
:1039BC00054B9C4208BFEC68ECE7002038BD00BF0B
:1039CC00BC3C0008DC3C00089C3C000838B50546B3
:1039DC00084611460022054C22601A46FEF73EFFAF
:1039EC00431C02D1236803B12B6038BD5413002053
:1039FC0070B50E46B1F90E1090B0002914461D4654
:103A0C0007DA00232B60B3891A0610D44FF48063B5
:103A1C000EE001AA00F0BEF80028F2DB029A02F4D4
:103A2C007042A2F500535A425A412A60EEE74023F5
:103A3C000020236010B070BD8B8973B59D070646BE
:103A4C000C4607D504F1470323602361012363610E
:103A5C0002B070BD01AB6A46FFF7CAFF009905467C
:103A6C003046FFF761FA48B9B4F90C309A05EFD437
:103A7C0023F0030343F00203A381E3E70D4BB3628E
:103A8C00A389206043F08003A381009B20616361C4
:103A9C00019B5BB1B4F90E10304600F08DF828B1E3
:103AAC00A38923F0030343F00103A381A3891D43DE
:103ABC00A581CDE7A12D000810B5C9B202449042F2
:103ACC00034601D1002010BD1C7801308C42F6D188
:103ADC00184610BD7047704738B50546002943D0CD
:103AEC0051F8043C0C1F002BB8BFE418FFF7F2FF91
:103AFC001E4A1368104633B9636014602846BDE84B
:103B0C003840FFF7E8BFA3420BD9216862189342F3
:103B1C0001BF1A685B685218226063600460EDE7AD
:103B2C0013465A680AB1A242FAD919685818A04229
:103B3C000BD120680144581882421960DED11068FC
:103B4C005268014419605A60D8E702D90C232B60E3
:103B5C00D4E7206821188A4201BF116852680918FD
:103B6C00216062605C60C9E738BD00BF480400207A
:103B7C0038B50546084611460022054C22601A4607
:103B8C00FEF72CFE431C02D1236803B12B6038BD19
:103B9C005413002038B50023064C05460846114640
:103BAC002360FEF754FE431C02D1236803B12B6043
:103BBC0038BD00BF5413002038B50023054C054612
:103BCC0008462360FEF748FE431C02D1236803B16C
:103BDC002B6038BD54130020F8B500BFF8BC08BCEE
:103BEC009E467047F8B500BFF8BC08BC9E467047AF
:103BFC0002030405060708090A0B0C0D0E0F101022
:103C0C004552524F523A2000496E76616C696420DD
:103C1C004465766963652068616E646C6500496E05
:103C2C0076616C696420436C6173732068616E64A7
:103C3C006C65000000000000000000010203040697
:103C4C000708090002010243444320436F6E666972
:103C5C00670043444320496E746572666163650076
:103C6C0053544D6963726F656C656374726F6E69E2
:103C7C0063730053544D3332205669727475616C02
:103C8C0020436F6D506F727400000000840100209F
:103C9C000000000000000000000000000000000018
:103CAC000000000000000000000000000000000008
:103CBC0000000000000000000000000000000000F8
:103CCC0000000000000000000000000000000000E8
:103CDC0000000000000000000000000000000000D8
:103CEC0000000000000000000000000000000000C8
:103CFC00232D302B2000686C4C00656667454647C9
:103D0C00003031323334353637383941424344454B
:103D1C0046003031323334353637383961626364BA
:043D2C0065660000C8
:043D30003101000855
:043D34000D01000875
:103D38000100000010000000451C0008031C0008DA
:103D4800471B000800000000811A0008071B000834
:103D5800D91A000800000000000000000000000060
:103D6800B51A0008A91A0008C11A0008CD1A0008D7
:103D780009024300020100C03209040000010202E6
:103D88000100052400100105240100010424020299
:103D98000524060001070582030800100904010034
:103DA800020A000000070501024000000705810221
:103DB8004000000009024300020100C0320904006B
:103DC8000001020201000524001001052401000180
:103DD80004240202052406000107058203080010D6
:103DE80009040100020A00000007050102000200A0
:103DF80007058102000200000A06000200000040D8
:103E08000100000009074300020104C03209040050
:103E1800000102020100052400100105240100012F
:103E28000424020205240600010705820308001085
:103E380009040100020A0000000705010240000011
:103E48000705810240000000010000000024F40082
:103E58002D290008092900080D2900081129000842
:103E6800A92B0008B52B0008292C0008452C0008B0
:103E7800E92B0008612C00087D2C000812010002C3
:103E880002020040830440570002010203010000BF
:103E9800040309041A0300000000000000000000E9
:103EA800000000000000000000000000000000000A
:103EB8008401002000000000BC3C0008DC3C000835
:103EC8009C3C00080000000000000000000000000A
:103ED80000000000000000000000000000000000DA
:103EE80000000000000000000000000000000000CA
:103EF80000000000000000000000000000000000BA
:103F080000000000000000000000000000000000A9
:043F180000000000A5
:0400000508002C992A
:00000001FF
